:10000000EFC700000C9418080C9418080C941808FA
:100010000C9418080C9418080C9418080C941808E0
:100020000C9418080C9418080C9418080C941808D0
:10003000FFC700000C94DD3AFBC70000F9C70000C1
:10004000F7C700000C94FA4C0C949D20F1C70000F7
:100050000C945A22EDC70000EBC70000E9C700006E
:10006000E7C70000E5C70000E3C70000E1C70000E4
:10007000084AD73B3BCE016E84BCBFFDC12F3D6C0F
:1000800074319ABD56833DDA3D00C77F11BED9E475
:10009000BB4C3E916BAAAABE000000803F05A84C55
:1000A000CDB2D44EB93836A9020C50B99186880821
:1000B0003CA6AAAA2ABE000000803F4572726F7259
:1000C0003A005072696E7465722073746F70706557
:1000D000642064657520746F206572726F72732E70
:1000E0002046697820746865206572726F7220619D
:1000F0006E6420757365204D39393920746F207214
:10010000657374617274212E202854656D70657258
:1001100061747572652069732072657365742E2031
:10012000536574206974206265666F72652072651C
:100130007374617274696E6729005072696E7465B8
:10014000722068616C7465642E206B696C6C282960
:100150002063616C6C6564202121006F6B00526527
:1001600073656E643A006563686F3A002200556EED
:100170006B6E6F776E20636F6D6D616E643A2200F7
:100180007A5F6D696E3A00795F6D696E3A00785FEB
:100190006D696E3A005A3A00593A0020436F756E05
:1001A0007420583A00453A005A3A00593A00583AF1
:1001B000004649524D574152455F4E414D453A4DDB
:1001C00061726C696E2056313B20537072696E7497
:1001D00065722F6772626C206D617368757020663E
:1001E0006F722067656E36204649524D5741524521
:1001F0005F55524C3A687474703A2F2F7777772E88
:100200006D656E64656C2D70617274732E636F6DB5
:100210002050524F544F434F4C5F56455253494F15
:100220004E3A312E30204D414348494E455F545996
:1002300050453A4D656E64656C204558545255449E
:1002400045525F434F554E543A310A0020423A001E
:1002500020453A00543A0020573A0020453A0054CD
:100260003A0020403A0020423A006F6B20543A0096
:100270005072696E7465722073746F70706564205B
:1002800064657520746F206572726F72732E2046DC
:10029000697820746865206572726F7220616E647F
:1002A00020757365204D39393920746F207265735C
:1002B00074617274212E202854656D7065726174AA
:1002C0007572652069732072657365742E2053659D
:1002D00074206974206265666F726520726573743C
:1002E000617274696E6729006F6B004E6F204C69F4
:1002F0006E65204E756D6265722077697468206343
:100300006865636B73756D2C204C617374204C6948
:100310006E653A004E6F20436865636B73756D20A0
:1003200077697468206C696E65206E756D626572A0
:100330002C204C617374204C696E653A00636865CB
:10034000636B73756D206D69736D617463682C20C8
:100350004C617374204C696E653A004C696E65207F
:100360004E756D626572206973206E6F74204C61EA
:100370007374204C696E65204E756D6265722B3109
:100380002C204C617374204C696E653A002020501B
:100390006C616E6E657242756666657242797465EF
:1003A000733A20002046726565204D656D6F727945
:1003B0003A20006572696B00207C20417574686F7B
:1003C000723A2000323031322D30322D3235002059
:1003D0004C61737420557064617465643A20003117
:1003E0002E302E3020524332004D61726C696E3ACD
:1003F000200020536F6674776172652052657365C3
:100400007400205761746368646F67205265736578
:1004100074002042726F776E206F7574205265737E
:100420006574002045787465726E616C2052657346
:10043000657400506F7765725570007374617274E3
:10044000002200656E717565696E67202200656324
:10045000686F3A0020746F6F206C6F6E672065784C
:1004600074727573696F6E2070726576656E7465EF
:10047000640020636F6C6420657874727573696FB3
:100480006E2070726576656E7465640024F427D3FF
:10049000FD204D0FB0119A05160CE9022D09C80177
:1004A000650733013206DE005405A700AD04830062
:1004B0002A046900C10356006B03480023033D0072
:1004C000E6023500B1022D00840228005C02230000
:1004D0003902200019021C00FD011900E401170077
:1004E000CD011500B8011300A50111009401100001
:1004F00084010F0075010E0067010D005A010C0008
:100500004E010B0043010A0039010A002F010900C6
:10051000260109001D010800150107000E01080051
:1005200006010700FF000600F9000600F3000600C0
:10053000ED000600E7000500E2000500DD00050013
:10054000D8000500D3000400CF000500CA00040055
:10055000C6000400C2000400BE000300BB0004008B
:10056000B7000300B4000300B1000400AD000300B5
:10057000AA000300A7000200A5000300A2000300D8
:100580009F0002009D0003009A00020098000300F3
:100590009500020093000200910002008F0002000B
:1005A0008D0002008B00020089000200870002001B
:1005B000850002008300020081000100800002002B
:1005C0007E0002007C0001007B0002007900010037
:1005D000780002007600010075000100740002003E
:1005E0007200010071000100700002006E00010045
:1005F0006D0001006C0001006B0002006900010049
:10060000680001006700010066000100650001004C
:10061000640001006300010062000100610001004C
:10062000600001005F0001005E0001005D0001004C
:100630005C0001005B0000005B0001005A0001004B
:100640005900010058000100570000005700010048
:100650005600010055000100540000005400010044
:100660005300010052000100510000005100010040
:10067000500001004F0000004F0001004E0000003C
:100680004E0001004D0001004C0000004C00010034
:100690004B0000004B0001004A000100490000002F
:1006A0004900010048000000480001004700000028
:1006B0004700010046000000460001004500000020
:1006C0004500010044000000440001004300000018
:1006D0004300010042000000420001004100000010
:1006E0004100000041000100400000004000010006
:1006F0003F0000003F0001003E0000003E000000FF
:100700003E0001003D0000003D0001003C000000F3
:100710003C0000003C0001003B0000003B000000EA
:100720003B0001003A0000003A0000003A000100DE
:1007300039000000390000003900010038000000D5
:1007400038000000380001003700000037000000CA
:1007500037000100360000003600000036000100BE
:1007600035000000350000003500000035000100B4
:1007700034000000340000003400010033000000A9
:10078000330000003300000033000100320000009D
:100790003200000032000000320001003100000091
:1007A0003100000031000000310001003000000085
:1007B0003000000030000000300001002F00000079
:1007C0002F0000002F0000002F0001002E0000006D
:1007D0002E0000002E0000002E0000002E00010060
:1007E0002D0000002D0000002D0000002D00010054
:1007F0002C0000002C0000002C0000002C00000049
:100800002C0001002B0000002B0000002B0000003A
:100810002B0000002B0001002A0000002A0000002D
:100820002A0000002A0000002A0000002A0001001F
:100830002900000029000000290000002900000014
:100840002900000029000100280000002800000005
:1008500028000000280000002800010027000000F8
:1008600027000000270000002700000027000000EC
:1008700027000000270001002600000026000000DD
:1008800026000000260000002600000024F4B12805
:1008900073CB111D62AECC159698F410A287900D03
:1008A000127A190BF96E4009B965D307E65DB506F2
:1008B0003157D005615116054B4C7D04CE47FD03E1
:1008C000D14392033F403603093DE902203AA40296
:1008D0007C376A0212353602DC320802D430E1017C
:1008E000F32EBD01362D9E01982B8101172A670139
:1008F000B028500160273B0125262801FD24160160
:10090000E7230701E022F800E821EB00FD20DE00EC
:100910001F20D3004C1FC800841EBF00C51DB5009A
:10092000101DAD00631CA500BE1B9E00201B970080
:10093000891A9100F8198A006E198500E9187F005C
:100940006A187B00EF1776007917710008176D00A1
:100950009B166A0031166500CC1562006A155F00AF
:100960000B155B00B01458005814560002145200C6
:10097000B013500060134E0012134B00C712490011
:100980007E12460038124500F3114300B0114000BA
:1009900070113F0031113D00F4103C00B8103A00D6
:1009A0007E103800461037000F103500DA0F340083
:1009B000A60F3300730F3100420F3000120F3000CA
:1009C000E20E2D00B50E2D00880E2C005C0E2B00C3
:1009D000310E2A00070E2800DF0D2800B70D270072
:1009E000900D26006A0D2600440D2400200D2400E1
:1009F000FC0C2300D90C2200B70C2200950C21001E
:100A0000740C2000540C1F00350C1F00160C1F0026
:100A1000F70B1E00D90B1D00BC0B1C00A00B1C000B
:100A2000840B1C00680B1B004D0B1B00320B1A00C3
:100A3000180B1900FF0A1900E60A1900CD0A180060
:100A4000B50A18009D0A1800850A17006E0A1600DC
:100A5000580A1600420A16002C0A1600160A15003B
:100A6000010A1500EC091400D8091400C409140087
:100A7000B00914009C0913008909130076091300BA
:100A800063091200510912003F0912002D091100DB
:100A90001C0912000A091100F9081000E9081100E8
:100AA000D8081000C8081000B8081000A8081000E6
:100AB00098080F0089080F007A080F006B080F00D4
:100AC0005C080F004D080E003F080E0031080E00B4
:100AD00023080E0015080E0007080D00FA070D0088
:100AE000ED070D00E0070D00D3070D00C6070D0050
:100AF000B9070C00AD070C00A1070D0094070B000F
:100B000089070C007D070C0071070C0065070B00BE
:100B10005A070B004F070B0044070B0039070B0067
:100B20002E070B0023070B0018070A000E070B0007
:100B300003070A00F9060A00EF060A00E5060A00A4
:100B4000DB060A00D1060900C8060A00BE06090035
:100B5000B5060A00AB060900A206090099060900BD
:100B600090060900870609007E060900750609003F
:100B70006C060800640609005B06080053060900BD
:100B80004A060800420608003A0608003206080035
:100B90002A060800220608001A06080012060700A6
:100BA0000B06080003060800FB050700F405080013
:100BB000EC050700E5050700DE050700D70507007F
:100BC000D0050700C9050700C2050700BB050700DF
:100BD000B4050700AD050700A6050600A00507003F
:100BE00099050700920506008C050600860507009A
:100BF0007F05060079050600730507006C050600F1
:100C000066050600600506005A0506005405060044
:100C10004E05060048050600420505003D05060094
:100C200037050600310505002C05060026050500E0
:100C3000210506001B050500160506001005050028
:100C40000B0505000605060000050500FB04050070
:100C5000F6040500F1040500EC040500E7040500B6
:100C6000E2040500DD040500D8040500D3040500F6
:100C7000CE040500C9040500C4040500BF04040037
:100C8000BB040500B6040500B10405006563686F88
:100C90003A00205A3A0020593A0020583A00656E2E
:100CA0006473746F7073206869743A2000457272BF
:100CB0006F723A0054656D7065726174757265206B
:100CC0006865617465642062656420737769746324
:100CD000686564206F66662E204D415854454D501E
:100CE00020747269676765726564202121003A206B
:100CF000457874727564657220737769746368658A
:100D000064206F66662E204D494E54454D50207428
:100D100072696767657265642021003A20457874BE
:100D20007275646572207377697463686564206F97
:100D300066662E204D415854454D502074726967A7
:100D400067657265642021001000C90220013C0122
:100D500030020A014003EF005004DD006005D000BE
:100D60007006C5008007BC009008B500A009AE0061
:100D7000B00AA900C00BA300D00C9F00E00D9A00A0
:100D8000F00E96000010930010118F0020128C00BE
:100D900030138800401485005015820060168000D2
:100DA00070177D0080187A0090197800A01A7500DD
:100DB000B01B7300C01C7000D01D6E00E01E6C00E4
:100DC000F01F6A00002167001022650020236300E5
:100DD0003024610040255F0050265C0060275A00E7
:100DE0007028580080295600902A5400A02B5100EA
:100DF000B02C4F00C02D4D00D02E4B00E02F4800EE
:100E0000F0304600003243001033400020343D00F3
:100E100030353A0040363700503734006038300003
:100E200070392C00803A2800903B2200A03C1C0026
:100E3000B03D1400C03E0800D03F0000202D2049E6
:100E40006E76616C69642065787472756465722071
:100E50006E756D626572202100202D20496E7661CD
:100E60006C6964206578747275646572206E756D46
:100E7000626572210020403A006F6B20543A0050A6
:100E80004944204175746F74756E65206661696CA4
:100E9000656420212C2054656D70657261747572D3
:100EA0006520746F206869676800204B643A2000F1
:100EB000204B693A2000204B703A2000204E6F20D2
:100EC0006F76657273686F6F742000204B643A20F0
:100ED00000204B693A2000204B703A200020536FCD
:100EE0006D65206F76657273686F6F742000204B9C
:100EF000643A2000204B693A2000204B703A2000D1
:100F000020436C617369632050494420002054756C
:100F10003A2000204B753A2000206D61783A20007D
:100F2000206D696E3A200020643A200020626961D9
:100F3000733A2000002124272A002225282B002094
:100F4000232629020202020202020204040404040B
:100F50000404040303030303030303010101010168
:100F60000101010102040810204080010204081060
:100F7000204080010204081020408080402010089A
:100F80000402010000000102000000000000000453
:100F90000307060000000000000000000000000041
:100FA000000000494E46494E4954594E414ECDCC61
:100FB000CC3D0AD7233C17B7D13877CC2B32959547
:100FC000E6241FB14F0A000020410000C842004043
:100FD0001C4620BCBE4CCA1B0E5AAEC59D7477245D
:100FE00011241FBECFEFD0E1DEBFCDBF12E0A0E0E5
:100FF000B1E0E2E2F2EB02C005900D92A638B10733
:10100000D9F71AE0A6E8B2E001C01D92A73FB107E8
:10101000E1F71FE0C0EEDFE004C02297FE010E946E
:101020005D53CE3DD107C9F70E9498200C940F590B
:101030000C940000AF92BF92CF92DF92EF92FF929A
:101040000F931F93DF93CF93CDB7DEB7E0970FB623
:10105000F894DEBF0FBECDBFDE011196EFE6F2E0E1
:1010600080E101900D928150E1F7DE015196EFE5AC
:10107000F2E080E101900D928150E1F7DE0191965E
:10108000EFE4F2E080E101900D928150E1F7BE01C2
:101090006F5F7F4F40E255E021E1A22EB12CAC0EF4
:1010A000BD1E00E115E091E2E92EF12CEC0EFD1ED3
:1010B00080E3C82E85E0D82E20E030E0FB0181914E
:1010C0009191A191B191BF01FA0181939193A19363
:1010D000B193AF01F50181919191A191B1915F011E
:1010E000F80181939193A193B1938F01F7018191BD
:1010F0009191A191B1917F01F60181939193A19377
:10110000B1936F012F5F3F4F24303105B9F680E076
:1011100090E0AAEFB3E48093440590934505A09333
:101120004605B093470580E090E8ABE3B5E48093D3
:10113000480590934905A0934A05B0934B0580E07C
:1011400090E0DC018093400590934105A093420517
:10115000B093430520E23EE440E050E020930C05CC
:1011600030930D0540930E0550930F05809358055D
:1011700090935905A0935A05B0935B0580E090E0E9
:10118000A0EAB1E480934C0590934D05A0934E05E1
:10119000B0934F058DEC9CECACECBEE38093500516
:1011A00090935105A0935205B093530580E090E0D1
:1011B000A0EAB0E48093540590935505A09356059A
:1011C000B0935705E6E6F1E007C09091C00095FFA7
:1011D000FCCF8093C600319684918823B1F7E0E07C
:1011E000F1E006C09091C00095FFFCCF8093C6004F
:1011F00081918823B9F78091C00085FFFCCF8AE0F8
:101200008093C600E0960FB6F894DEBF0FBECDBF48
:10121000CF91DF911F910F91FF90EF90DF90CF90D2
:10122000BF90AF900895DF93CF9300D0CDB7DEB7D6
:101230008091F10A9091F20A9E012F5F3F4F009733
:1012400019F4275F3A4002C0281B390B3A832983DF
:1012500089819A810F900F90CF91DF910895AF927D
:10126000BF92CF92DF92EF92FF920F931F93CF9393
:10127000DF938BE095E040E052EC61E070E00E948B
:101280008F22EBE3F4E007C09091C00095FFFCCF04
:101290008093C600319684918823B1F78091C00075
:1012A00085FFFCCF8AE08093C60086E691E0FC01D2
:1012B00007C03091C00035FFFCCF2093C6003196A7
:1012C00024912223B1F724B720FF14C0E3E3F4E014
:1012D00007C04091C00045FFFCCF3093C600319657
:1012E00034913323B1F73091C00035FFFCCF3AE0A1
:1012F0003093C60021FF14C0E3E2F4E007C0409140
:10130000C00045FFFCCF3093C600319634913323A3
:10131000B1F73091C00035FFFCCF3AE03093C60002
:1013200022FF14C0E2E1F4E007C04091C00045FF95
:10133000FCCF3093C600319634913323B1F730910E
:10134000C00035FFFCCF3AE03093C60023FF14C045
:10135000E2E0F4E007C04091C00045FFFCCF3093CD
:10136000C600319634913323B1F73091C00035FF78
:10137000FCCF3AE03093C60025FF14C0E2EFF3E063
:1013800007C03091C00035FFFCCF2093C6003196D6
:1013900024912223B1F72091C00025FFFCCF2AE041
:1013A0002093C60014BEE9EEF3E007C03091C00000
:1013B00035FFFCCF2093C600319624912223B1F74C
:1013C000EFEDF3E007C03091C00035FFFCCF209374
:1013D000C600319624912223B1F72091C00025FF49
:1013E000FCCF2AE02093C600FC012491E6E6F1E060
:1013F00008C03091C00035FFFCCF2093C600319665
:1014000024912223B1F7EFECF3E007C03091C00044
:1014100035FFFCCF2093C600319624912223B1F7EB
:10142000E4ECF3E007C03091C00035FFFCCF20931F
:10143000C600319624912223B1F7E8EBF3E007C010
:101440003091C00035FFFCCF2093C6003196249127
:101450002223B1F7E3EBF3E007C03091C00035FF82
:10146000FCCF2093C600319624912223B1F720911E
:10147000C00025FFFCCF2AE02093C600FC01849128
:10148000E6E6F1E008C09091C00095FFFCCF8093A4
:10149000C600319684918823B1F7E4EAF3E007C0EF
:1014A0009091C00095FFFCCF8093C6003196849147
:1014B0008823B1F7B8DEBC018BE095E04AE050E04C
:1014C0000E949C23EDE8F3E007C09091C00095FFD7
:1014D000FCCF8093C600319684918823B1F78BE0CE
:1014E00095E060ED74E04AE050E00E949C2380911A
:1014F000C00085FFFCCF8AE08093C6001092740480
:1015000010927504109276041092770480E092DDB8
:10151000C0E3D5E000E215E03CE5E32E35E0F32E34
:101520006991799189919991F801A190B190C190B7
:10153000D1908F010E94DD4FA60195010E941252A9
:101540000E94B14FF70161937193819391937F0151
:10155000F5E0C034DF0721F70E94BA4B0E94CF2C80
:101560000E94D340DF91CF911F910F91FF90EF9098
:10157000DF90CF90BF90AF90089580916C049091D0
:101580006D04019660E070E00C94615380916C04EE
:1015900090916D04019660E070E04AE050E00C9498
:1015A000CE54682FE091EA02F091EB0240E650E061
:1015B000E49F9001E59F300DF49F300D1124C90187
:1015C00084519D4F70E00E9418569C0190936D04C9
:1015D00080936C0481E02115310509F480E00895C1
:1015E0000E94E2206093B4027093B5028093B60229
:1015F0009093B702EBE5F1E007C09091C00095FF32
:10160000FCCF8093C600319684918823B1F78091F6
:10161000C00085FFFCCF8AE08093C60008958BE070
:1016200095E00E94D222EEE5F1E007C09091C00063
:1016300095FFFCCF8093C600319684918823B1F743
:101640004091AC025091AD026091AE027091AF0238
:101650004F5F5F4F6F4F7F4F8BE095E02AE030E0A8
:101660000E946C238091C00085FFFCCF8AE08093AC
:10167000C600B6CF4F925F926F927F928F929F92E9
:10168000AF92BF92CF92DF92EF92FF920F931F9390
:10169000CF93DF9370E6C72ED12C64E0662E712CB9
:1016A00051E0A52EB12CE0E7F2E084904AE0942EC0
:1016B000E8EEF2E05490442443941CC28D3071F063
:1016C0008A3321F490916F04992341F020917004A2
:1016D000309171042F3531050CF4EEC1E0917004A6
:1016E000F0917104309719F410926F0422C2809126
:1016F0007204909173048C9DE0018D9DD00D9C9D92
:10170000D00D1124EC0FFD1FE451FD4F10822091EC
:101710006F04222309F0CBC110926F048C589B4FA9
:10172000FC0110828E0104511D4FC8016EE470E06F
:101730000E941856009709F412C190936D0480938B
:101740006C049501201B310B280F391F2C0F3D1FF6
:10175000C90184519D4F60E070E04AE050E00E9472
:10176000CE54609378047093790480937A049093B4
:101770007B04E090AC02F090AD020091AE021091BB
:10178000AF02A80197012F5F3F4F4F4F5F4F621786
:1017900073078407950709F43AC0209172043091C9
:1017A00073042C9DC0012D9D900D3C9D900D112426
:1017B00084519D4F68E171E00E942356009739F5EE
:1017C000EBEBF0E007C09091C00095FFFCCF809359
:1017D000C600319684918823B1F7EBE5F3E007C0AA
:1017E0009091C00095FFFCCF8093C6003196849104
:1017F0008823B1F78BE095E0B801A7012AE030E03B
:101800000E946C238091C00085FFFCCF92C0809124
:101810007204909173048C9DE0018D9DD00D9C9D70
:10182000D00D1124CE0184519D4F6AE270E00E94D8
:101830001856009709F457C020E000E002C00327C3
:101840002F5FFE01E20FF11DE451FD4F30813A326E
:10185000B1F790936D0480936C049E0124513D4F29
:10186000A501421B530B9A01280F391F2C0F3D1F56
:10187000C90184519D4F60E070E00E9461530E9455
:10188000AC4F10E00617170709F458C0EBEBF0E077
:1018900007C09091C00095FFFCCF8093C6003196A1
:1018A00084918823B1F7EDE3F3E007C09091C00085
:1018B00095FFFCCF8093C600319684918823B1F7C1
:1018C0004091AC025091AD026091AE027091AF02B6
:1018D0008BE095E02AE030E00E946C238091C0000C
:1018E00085FFFCCF26C0EBEBF0E007C09091C00075
:1018F00095FFFCCF8093C600319684918823B1F781
:10190000E4E1F3E007C09091C00095FFFCCF809325
:10191000C600319684918823B1F78BE095E0B80139
:10192000A7012AE030E00E946C238091C00085FF6F
:10193000FCCF8AE08093C60072DE47C080917804B5
:1019400090917904A0917A04B0917B048093AC02C9
:101950009093AD02A093AE02B093AF023BC0C8011A
:101960006AE270E00E9418560097A1F1EBEBF0E0FC
:1019700007C09091C00095FFFCCF8093C6003196C0
:1019800084918823B1F7EBEEF2E007C09091C0009C
:1019900095FFFCCF8093C600319684918823B1F7E0
:1019A0004091AC025091AD026091AE027091AF02D5
:1019B0008BE095E02AE030E00E946C238091C0002B
:1019C00085FFFCCF8AE08093C600109271041092CC
:1019D0007004AFC080917204909173048C9D80015B
:1019E0008D9D100D9C9D100D1124E801C451DD4FFB
:1019F000CE0167E470E00E941856009709F442C0D7
:101A000090936D0480936C0495012C1B3D0B280F63
:101A1000391F200F311FC90184519D4F60E070E0D4
:101A20000E9461530E94AC4F6430710558F580915B
:101A3000AB02882399F4852DE8EEF2E008C090917E
:101A4000C00095FFFCCF8093C60031968491882317
:101A5000B1F78091C00085FFFCCF12C0882DE0E770
:101A6000F2E008C09091C00095FFFCCF8093C600C3
:101A7000319684918823B1F78091C00085FFFCCF17
:101A80009092C60080917204909173040196B30104
:101A90000E94F752909373048093720480917C04A7
:101AA00090917D04019690937D0480937C04109224
:101AB0007104109270041EC08B3311F440926F04B5
:101AC00090916F049923B1F4409172045091730482
:101AD0004C9DF0014D9DF00D5C9DF00D1124E20F29
:101AE000F31FE451FD4F80832F5F3F4F309371040C
:101AF00020937004809107059091080520910905B5
:101B000030910A05821B930B8F779070009789F0B4
:101B100080917C0490917D048430910554F48BE095
:101B200095E00E94B62280936E048A3009F0C6CDFB
:101B3000D5CDDF91CF911F910F91FF90EF90DF9066
:101B4000CF90BF90AF909F908F907F906F905F905D
:101B50004F9008958F929F92AF92BF92CF92DF9253
:101B6000EF92FF920F931F93CF93DF93F1E1EF2E4C
:101B7000F2E0FF2ECDE8D2E008EC12E0E6E8CE2E4F
:101B8000E2E0DE2EF70181917F010BDD882321F158
:101B9000F4DC4B015C01F6018081882319F460912B
:101BA000D80201C061E070E0882777FD8095982F0A
:101BB0000E94DF4F288139814A815B810E94125245
:101BC0009B01AC01C501B4010E94644EF801608321
:101BD00071838283938309C088819981AA81BB81A3
:101BE000F80180839183A283B38324960C5F1F4FF7
:101BF0000894C11CD11CF5E1EF16F2E0FF0609F0D4
:101C0000C1CF86E4CEDC8823D1F0B7DC7B018C0128
:101C10006093D9027093DA028093DB029093DC0226
:101C200020E030E0A9010E944051181644F4E092EF
:101C3000F201F092F3010093F4011093F501DF91AA
:101C4000CF911F910F91FF90EF90DF90CF90BF90B9
:101C5000AF909F908F9008957DDF89E4A2DC882368
:101C600051F08BDC6093BC027093BD028093BE0286
:101C70009093BF020BC080E090E0DC018093BC0237
:101C80009093BD02A093BE02B093BF028AE489DCA8
:101C9000882351F072DC6093C0027093C10280937C
:101CA000C2029093C302089580E090E0DC0180932B
:101CB000C0029093C102A093C202B093C3020895E0
:101CC000CF92DF92EF92FF920F931F936091C80221
:101CD0007091C9028091CA029091CB0220E030E05D
:101CE000A9010E943D4F87FF0BC080E090E0DC011E
:101CF0008093C8029093C902A093CA02B093CB020A
:101D00006091CC027091CD028091CE029091CF0271
:101D100020E030E0A9010E943D4F87FF0BC080E02A
:101D200090E0DC018093CC029093CD02A093CE0290
:101D3000B093CF026091D0027091D1028091D20213
:101D40009091D30220E030E0A9010E943D4F87FF2F
:101D50000BC080E090E0DC018093D0029093D10230
:101D6000A093D202B093D3026091C8027091C902CD
:101D70008091CA029091CB0220E030E04DE453E420
:101D80000E944051181664F480E090E0ADE4B3E4A2
:101D90008093C8029093C902A093CA02B093CB0269
:101DA0006091CC027091CD028091CE029091CF02D1
:101DB00020E030E04DE453E40E944051181664F4F2
:101DC00080E090E0ADE4B3E48093CC029093CD0248
:101DD000A093CE02B093CF026091D0027091D10255
:101DE0008091D2029091D30220E030E040EF52E4A3
:101DF0000E944051181664F480E090E0A0EFB2E435
:101E00008093D0029093D102A093D202B093D302D8
:101E10000E94E2206093B4027093B5028093B602F0
:101E20009093B7026091EA017091EB01882777FDEA
:101E30008095982F0E94DF4F2091F2013091F3019D
:101E40004091F4015091F5010E94125220E030E0DF
:101E500040E752E40E94444F20E030E048EC52E476
:101E60000E94444F7B018C0188EC92E06CEC72E0A4
:101E700040ED52E024ED32E0A9EACA2EA2E0DA2ECB
:101E80000E945E2D8091C8029091C902A091CA0261
:101E9000B091CB0280938D0290938E02A0938F021B
:101EA000B09390028091CC029091CD02A091CE028D
:101EB000B091CF028093910290939202A0939302EB
:101EC000B09394028091D0029091D102A091D2025D
:101ED000B091D3028093950290939602A0939702BB
:101EE000B09398028091D4029091D502A091D6022D
:101EF000B091D7028093990290939A02A0939B028B
:101F0000B0939C021F910F91FF90EF90DF90CF90C4
:101F100008959F92AF92BF92CF92DF92EF92FF927D
:101F20000F931F93CF93DF93982E6091BC02709113
:101F3000BD028091BE029091BF022091C0023091FB
:101F4000C1024091C2025091C3020E944D517B01D7
:101F50008C016091EA017091EB0100D000D000D0BB
:101F6000CDB7DEB72196882777FD8095982F0E9400
:101F7000DF4F2091F2013091F3014091F401509133
:101F8000F5010E94125220E030E040E752E40E9446
:101F9000444F20E030E048EC52E40E94444F5B01A3
:101FA0006C01E882F9820A831B839C828091A902DA
:101FB0008D838DE892E068EC72E04CEB52E020E01B
:101FC00001E0B2E0EB2E0E9478248091C80290914B
:101FD000C902A091CA02B091CB0280938D02909366
:101FE0008E02A0938F02B09390028091CC029091C8
:101FF000CD02A091CE02B091CF0280939102909336
:102000009202A0939302B09394028091D002909197
:10201000D102A091D202B091D30280939502909305
:102020009602A0939702B09398028091D402909167
:10203000D502A091D602B091D702809399029093D5
:102040009A02A0939B02B0939C028DB79EB706960E
:102050000FB6F8949EBF0FBE8DBF0E94E220609322
:10206000B4027093B5028093B6029093B702DF91E9
:10207000CF911F910F91FF90EF90DF90CF90BF9085
:10208000AF909F900895F8940E94184C5A985A98CF
:102090005A985A98EBEBF0E007C09091C00095FF7A
:1020A000FCCF8093C600319684918823B1F7EAE390
:1020B000F1E007C09091C00095FFFCCF8093C6006F
:1020C000319684918823B1F78091C00085FFFCCFC1
:1020D0008AE08093C600FFCFEF92FF920F931F9389
:1020E0000E94E2202091B8023091B9024091BA02D8
:1020F0005091BB02E090B402F090B5020091B6029C
:102100001091B7026E197F09800B910B26173707C4
:102110004807590730F4211531054105510509F0EB
:10212000B2DF8091EE019091EF01A091F001B091AA
:10213000F1010097A105B10529F10E94E22020914B
:10214000B4023091B5024091B6025091B702621BC1
:10215000730B840B950B2091EE013091EF014091B0
:10216000F0015091F101261737074807590750F43D
:1021700090914C0A80914D0A981721F45A985A98D8
:102180005A985A980E94062D1EBA1F910F91FF90DF
:10219000EF9008952F923F924F925F926F927F92AD
:1021A0008F929F92AF92BF92CF92DF92EF92FF9267
:1021B0000F931F93DF93CF93CDB7DEB7A2970FB6E0
:1021C000F894DEBF0FBECDBF87E4EBD9882309F4B6
:1021D000A3C5D3D90E94AC4F6430710509F43CC04B
:1021E0006530710554F46230710531F16330710569
:1021F00054F577FF19C00C94F41F6A35710509F482
:1022000027C56B35710534F46C31710511F00C94F0
:10221000F41F64C06B35710509F41EC56C3571057A
:1022200011F00C94F41F1DC58091AB02882321F49A
:1022300091DC46DD0C9413208091AB02882319F4C5
:102240000BDD81E006C08091AB02882329F404DD18
:1022500080E05FDE0C94132080E5A3D9882341F051
:102260008CD90E94B14FE62EF72E082F192F03C0EC
:10227000EE24FF24870183E594D9882369F07DD972
:1022800020E030E04AE754E40E9412520E94B14F2D
:10229000E62EF72E082F192F0E9412410E94E220ED
:1022A0005B016C01AE0CBF1CC01ED11E0E94E2205F
:1022B0006093B4027093B5028093B6029093B70214
:1022C00004C00E94AB4381E007DF0E94E2206A1550
:1022D0007B058C059D05A8F30C94F41F8091F201F9
:1022E0009091F301A091F401B091F5018093DD028A
:1022F0009093DE02A093DF02B093E0028091EA01A6
:102300009091EB0190938B0280938A0284E690E097
:102310009093EB018093EA010E94E2206093B40263
:102320007093B5028093B6029093B70281E00E9449
:10233000D43A80918D0290918E02A0918F02B0913B
:1023400090028093C8029093C902A093CA02B093EE
:10235000CB028091910290919202A0919302B09150
:1023600094028093CC029093CD02A093CE02B093BE
:10237000CF028091950290919602A0919702B09120
:1023800098028093D0029093D102A093D202B0938E
:10239000D3028091990290919A02A0919B02B091F0
:1023A0009C028093D4029093D502A093D602B0935E
:1023B000D70280E090E0DC018093F2019093F3017A
:1023C000A093F401B093F50188E5EBD8882351F48C
:1023D00089E5E7D8882331F48AE5E3D8882311F426
:1023E00081E001C080E08093F60188E5DAD8882397
:1023F00009F4E6C089E5D5D8882309F4E1C080E076
:1024000090E0DC0180938D0290938E02A0938F0266
:10241000B09390028093910290939202A0939302C2
:10242000B09394028DE892E061E972E045E952E0F0
:1024300029E932E00E94453980E090ECA9E9B3EC4B
:102440008093C8029093C902A093CA02B093CB02B2
:102450008093CC029093CD02A093CE02B093CF0292
:102460002091DA013091DB014091DC015091DD01D6
:102470002093F2013093F3014093F4015093F5015E
:10248000E090DE01F090DF010091E0011091E101A8
:10249000C801B7010E943D4F87FF08C0E092F201DA
:1024A000F092F3010093F4011093F5016091F201B1
:1024B0007091F3018091F4019091F50120E030E0FA
:1024C00040E752E40E94444F7B018C0188EC92E08B
:1024D0006CEC72E040ED52E024ED32E0B9EACB2E34
:1024E000B2E0DB2E0E945E2D0E9412410F2EF0E022
:1024F0008F2EF0E09F2EF0E0AF2EF0E0BF2EF02DFB
:1025000080928D0290928E02A0928F02B0929002E1
:102510008092910290929202A0929302B0929402C1
:102520008DE892E061E972E045E952E029E932E0A4
:102530000E94453980918D0290918E02A0918F0268
:10254000B09190028093C8029093C902A093CA02EE
:10255000B093CB028091910290919202A09193024C
:10256000B09194028093CC029093CD02A093CE02BE
:10257000B093CF026091F2017091F3018091F40168
:102580009091F50120E030E040E752E40E94444F92
:102590007B018C0188EC92E06CEC72E040ED52E043
:1025A00024ED32E00E945E2D8092F2019092F301C0
:1025B000A092F401B092F5010E9412410E94CD3A1E
:1025C0008091F601882331F488E50E94D10A88239E
:1025D00009F4DEC00F2EF0E08F2EF0E09F2EF0E029
:1025E000AF2EF0E0BF2EF02D80928D0290928E02E1
:1025F000A0928F02B09290028DE892E061E972E0C1
:1026000045E952E029E932E00E94453980E090EC4A
:10261000A9E9B3EC8093C8029093C902A093CA02BF
:10262000B093CB026091DA017091DB018091DC0103
:102630009091DD016093F2017093F3018093F401B6
:102640009093F50120E030E040E752E40E94444FCF
:102650007B018C0188EC92E06CEC72E040ED52E082
:1026600024ED32E0A9EACA2EA2E0DA2E0E945E2D05
:102670000E94124180928D0290928E02A0928F024F
:10268000B09290028DE892E061E972E045E952E093
:1026900029E932E00E94453980E090E0A0EAB0E408
:1026A0008093C8029093C902A093CA02B093CB0250
:1026B0006091F2017091F3018091F4019091F50124
:1026C00020E030E040E752E40E94444F7B018C015F
:1026D00088EC92E06CEC72E040ED52E024ED32E0E8
:1026E0000E945E2D0E94124180E090E0A0E2B1ECD9
:1026F0008093C8029093C902A093CA02B093CB0200
:102700006091DA017091DB018091DC019091DD0133
:1027100020E030E040E05FE30E941252262F372F86
:10272000482F592F2093F2013093F3014093F40185
:102730005093F50120E030E040E752E40E94444F1E
:102740007B018C0188EC92E06CEC72E040ED52E091
:1027500024ED32E00E945E2D0E94124180928D0293
:1027600090928E02A0928F02B09290028092C80244
:102770009092C902A092CA02B092CB028092F2015A
:102780009092F301A092F401B092F5010E94CD3A2B
:102790008091F601882331F489E50E94D10A8823CB
:1027A00009F4DEC00F2EF0E08F2EF0E09F2EF0E057
:1027B000AF2EF0E0BF2EF02D809291029092920207
:1027C000A0929302B09294028DE892E061E972E0E7
:1027D00045E952E029E932E00E94453980E090EC79
:1027E000A9E9B3EC8093CC029093CD02A093CE02E2
:1027F000B093CF026091DE017091DF018091E00122
:102800009091E1016093F2017093F3018093F401E0
:102810009093F50120E030E040E752E40E94444FFD
:102820007B018C0188EC92E06CEC72E040ED52E0B0
:1028300024ED32E0F9EACF2EF2E0DF2E0E945E2D89
:102840000E9412418092910290929202A092930271
:10285000B09294028DE892E061E972E045E952E0BD
:1028600029E932E00E94453980E090E0A0EAB0E436
:102870008093CC029093CD02A093CE02B093CF026E
:102880006091F2017091F3018091F4019091F50152
:1028900020E030E040E752E40E94444F7B018C018D
:1028A00088EC92E06CEC72E040ED52E024ED32E016
:1028B0000E945E2D0E94124180E090E0A0E2B1EC07
:1028C0008093CC029093CD02A093CE02B093CF021E
:1028D0006091DE017091DF018091E0019091E10152
:1028E00020E030E040E05FE30E941252262F372FB5
:1028F000482F592F2093F2013093F3014093F401B4
:102900005093F50120E030E040E752E40E94444F4C
:102910007B018C0188EC92E06CEC72E040ED52E0BF
:1029200024ED32E00E945E2D0E94124180929102BD
:1029300090929202A0929302B09294028092CC0262
:102940009092CD02A092CE02B092CF028092F2017C
:102950009092F301A092F401B092F5010E94CD3A59
:102960008091F601882331F48AE50E94D10A8823F8
:1029700009F4DEC00F2EF0E08F2EF0E09F2EF0E085
:10298000AF2EF0E0BF2EF02D80929502909296022D
:10299000A0929702B09298028DE892E061E972E00D
:1029A00045E952E029E932E00E94453980E090E0B3
:1029B000A4E3B3EC8093D0029093D102A093D2020F
:1029C000B093D3026091E2017091E3018091E40140
:1029D0009091E5016093F2017093F3018093F4010B
:1029E0009093F50120E030E040E752E40E94444F2C
:1029F0007B018C0188EC92E06CEC72E040ED52E0DF
:102A000024ED32E0E9EACE2EE2E0DE2E0E945E2DD9
:102A10000E9412418092950290929602A092970293
:102A2000B09298028DE892E061E972E045E952E0E7
:102A300029E932E00E94453980E090E0A0E8BFE358
:102A40008093D0029093D102A093D202B093D3028C
:102A50006091F2017091F3018091F4019091F50180
:102A600020E030E040E752E40E94444F7B018C01BB
:102A700088EC92E06CEC72E040ED52E024ED32E044
:102A80000E945E2D0E94124180E090E0A0E0B0EC38
:102A90008093D0029093D102A093D202B093D3023C
:102AA0006091E2017091E3018091E4019091E50170
:102AB00020E030E040E05FE30E941252262F372FE3
:102AC000482F592F2093F2013093F3014093F401E2
:102AD0005093F50120E030E040E752E40E94444F7B
:102AE0007B018C0188EC92E06CEC72E040ED52E0EE
:102AF00024ED32E00E945E2D0E94124180929502E8
:102B000090929602A0929702B09298028092D00280
:102B10009092D102A092D202B092D3028092F2019E
:102B20009092F301A092F401B092F5010E94CD3A87
:102B300088E50E94D10A8823D9F00E94C60A61154F
:102B4000710581059105A1F00E94BD0A20919D02A9
:102B500030919E0240919F025091A0020E94644ECB
:102B600060938D0270938E0280938F0290939002F7
:102B700089E50E94D10A8823D9F00E94C60A61150E
:102B8000710581059105A1F00E94BD0A2091A10265
:102B90003091A2024091A3025091A4020E94644E7F
:102BA00060939102709392028093930290939402A7
:102BB0008AE50E94D10A8823D9F00E94C60A6115CD
:102BC000710581059105A1F00E94BD0A2091A50221
:102BD0003091A6024091A7025091A8020E94644E33
:102BE0006093950270939602809397029093980257
:102BF0008DE892E061E972E045E952E029E932E0CE
:102C00000E9445398091DD029091DE02A091DF02A1
:102C1000B091E0028093F2019093F301A093F4014C
:102C2000B093F50180918A0290918B029093EB0111
:102C30008093EA010E94E2206093B4027093B5028F
:102C40008093B6029093B7020E94CD3A0C94F41F81
:102C50001092D8020C94F41F81E08093D8020C9457
:102C6000F41F85E40E94D10A882311F40E941241C6
:102C700041E1842E42E0942E3DE9E32E32E0F32E32
:102C80000DE812E0AA24F40181914F010E94D10ABB
:102C90008823A9F10E94BD0AF70120813181428178
:102CA00053810E94644EF801608371838283938311
:102CB000FA2DF33061F40E94BD0AF801608371833C
:102CC0008283938389E992E00E94F23918C00E94BE
:102CD000BD0AF70120813181428153810E94644EF7
:102CE000F80160837183828393838DE892E061E9C8
:102CF00072E045E952E029E932E00E944539A394A7
:102D000024E030E0E20EF31E0C5F1F4F3A2D34300A
:102D100009F0B9CF0C94F41F8DE40E94D10A8823E6
:102D200011F40C944A1F0E94BD0A0E94AC4F6737F1
:102D3000710509F434C6683771050CF056C0653565
:102D4000710509F412C5663571051CF56A32710505
:102D500009F41BC16B32710574F46231710509F419
:102D6000C0C46F31710509F4A5C06131710511F05E
:102D70000C94F41F99C06335710509F4AEC4643531
:102D800071050CF0AEC46235710511F00C94F41F9E
:102D9000A1C46A36710509F473C46B36710574F405
:102DA0006836710509F434C1693671050CF0A1C1AA
:102DB0006C35710511F00C94F41FEDC46D3671057E
:102DC00009F429C26E36710534F46B36710511F0C1
:102DD0000C94F41F7CC46237710509F407C563378E
:102DE000710511F00C94F41FF3C46C3D710509F4E6
:102DF00028C76D3D71051CF56B3C710509F469C66A
:102E00006C3C710574F46E3B710509F49BC3693C1D
:102E1000710509F424C66C38710511F00C94F41F87
:102E200055C16D3C710509F491C66D3C71050CF4FA
:102E30006DC66E3C710511F00C94F41FE5C681E07F
:102E40006F32780709F4F9C791E06033790784F4A9
:102E5000E1E06D327E0709F415C7F1E06E327F07BD
:102E60000CF0E7C76D3D710511F00C94F41FFBC623
:102E700021E0653F720709F4F2C731E0663F73074E
:102E80003CF481E06039780711F00C94F41FE4C73A
:102E900091E0663F790709F4E4C7E3E0673E7E0707
:102EA00011F00C94F41FE1C75A9A5A9A5A9A5A9AF6
:102EB0000C94F41F0E94E2206093E1027093E202FE
:102EC0008093E3029093E4022091E5023091E602C0
:102ED0004091E7025091E802621B730B840B950B43
:102EE00028EE33E040E050E00E940A538DB79EB7D1
:102EF00008970FB6F8949EBF0FBE8DBF0DB71EB7D3
:102F00000F5F1F4FCE010196EDB7FEB7928381830D
:102F100083E291E0F80193838283CA01B9012CE333
:102F200030E040E050E00E940A53F80135832483EA
:102F3000778366830E943D56E6E6F1E084912DB7E3
:102F40003EB7285F3F4F0FB6F8943EBF0FBE2DBF70
:102F500008C09091C00095FFFCCF8093C6003196C9
:102F600084918823B1F7FE01319606C09091C0008C
:102F700095FFFCCF8093C60081918823B9F780919B
:102F8000C00085FFFCCF0C94F11F83E50E94D10A9D
:102F9000882311F40C94F41F0E94BD0A7B018C015C
:102FA00080E50E94D10A882311F40C94F41FC80113
:102FB000B7010E94AC4F8B0177FF02C00C94F41F45
:102FC0006F3F710519F014F00C94F41F0E94BD0AB4
:102FD0000E94AC4F7B01E5E1F2E0819191918E1569
:102FE0009F0511F40C94F41F32E0E938F307A9F7B8
:102FF000F7FE01C0F9C78E2D61E00E9403228E2DDD
:10300000602F0E9424228E2DB8010E947821ECC7E7
:103010008091A9028093E90284E50E94D10A882365
:1030200061F10E94BD0A0E94B14F6093E9026623DC
:1030300021F1E6E6F1E007C09091C00095FFFCCFDA
:103040008093C600319684918823B1F7E2E3F1E0E2
:1030500006C09091C00095FFFCCF8093C60081917F
:103060008823B9F78BE095E040E050E00E946623AA
:103070008091C00085FFFCCFB4C783E50E94D10AD0
:10308000882309F10E94BD0A7B018C01D090E902DE
:10309000AD2CBB240E94AC4FDC01CB016D2D0E94F6
:1030A000A041F501EE0FFF1FE755F54F9183808397
:1030B000F501EE0FFF1FEE0FFF1FEF54F54FE082FB
:1030C000F182028313830E94174C8EC783E50E940E
:1030D000D10A882309F488C70E94BD0A0E94AC4F18
:1030E000DC01CB010E9456429093AC0A8093AB0A5C
:1030F0007BC78091A9028093E90284E50E94D10AEE
:10310000882361F10E94BD0A0E94B14F6093E902D9
:10311000662321F1E6E6F1E007C09091C00095FF3B
:10312000FCCF8093C600319684918823B1F7E9E4FF
:10313000F1E006C09091C00095FFFCCF8093C600DF
:1031400081918823B9F78BE095E040E050E00E9440
:1031500066238091C00085FFFCCF43C7EAE6F2E01A
:1031600007C09091C00095FFFCCF8093C6003196B8
:1031700084918823B1F76091E902E62FF0E0EE0F29
:10318000FF1FE355F54F808191810E94A642AB015C
:10319000BC018BE095E022E030E00E947524E6E679
:1031A000F2E007C09091C00095FFFCCF8093C6006D
:1031B000319684918823B1F78091AF0A9091B00A3B
:1031C0000E94204BAB01BC018BE095E022E030E097
:1031D0000E947524E2E6F2E007C09091C00095FFDE
:1031E000FCCF8093C600319684918823B1F78091FB
:1031F000E90290E00E949A41BC018BE095E04AE030
:1032000050E00E949C238091C00085FFFCCF8AE0A3
:103210008093C60008C78091A9028093E90284E5E3
:103220000E94D10A882361F10E94BD0A0E94B14F19
:103230006093E902662321F1E6E6F1E007C0909190
:10324000C00095FFFCCF8093C600319684918823FF
:10325000B1F7E0E6F1E006C09091C00095FFFCCF29
:103260008093C60081918823B9F78BE095E040E018
:1032700050E00E9466238091C00085FFFCCFB1C65C
:1032800083E50E94D10A882309F10E94BD0A7B01CF
:103290008C01D090E902AD2CBB240E94AC4FDC0124
:1032A000CB016D2D0E94A041F501EE0FFF1FE755E8
:1032B000F54F91838083F501EE0FFF1FEE0FFF1F87
:1032C000EF54F54FE082F182028313830E94174C82
:1032D00079D75B016C018091E90290E0880F991F1A
:1032E000FC01E755F54F208031808355954FFC0157
:1032F0000190F081E02DF8A3EF8FEE24EA94FE2CEC
:103300008701EFE5F2E0249129A3EBE5F2E0449098
:10331000E7E5F2E034913AA35AE0552E04C189A1C1
:10332000EFE5F2E008C09091C00095FFFCCF8093DC
:10333000C600319684918823B1F76091E902E62FA7
:10334000F0E0EE0FFF1FE355F54F808191810E9461
:10335000A642AB01BC018BE095E022E030E00E9488
:103360007524842DEBE5F2E008C09091C00095FF34
:10337000FCCF8093C600319684918823B1F7609189
:10338000E9028BE095E070E04AE050E00E949C2367
:103390008AA1E7E5F2E008C09091C00095FFFCCF5C
:1033A0008093C600319684918823B1F717FF03C03C
:1033B000E7E7F1E026C006D79B01AC01C801B701E1
:1033C000605F784D8F4F9F4F621B730B840B950B83
:1033D00028EE33E040E050E00E940A538BE095E095
:1033E000BA01A9012AE030E00E9456238091C00072
:1033F00085FFFCCF0DC09091C00095FFFCCF80935E
:10340000C60081918823B9F78091C00085FFFCCF69
:103410005092C600D7D65B016C010E94AB4381E09D
:103420000E946C108FEFE8168FEFF8068FEF0807F9
:103430008FEF180751F58091E902EF8DF8A1E215A1
:10344000F30594F490E0880F991FFC01E755F54FC0
:103450008355954F20813181FC01808191818217B4
:1034600093070CF048C04CC090E0880F991FFC01F6
:10347000E755F54F8355954F20813181FC018081BF
:10348000918128173907BCF53BC017FD39C0609101
:10349000E902E62FF0E0EE0FFF1FE355F54F8081C4
:1034A00091810E94A6423B014C016091E902E62F06
:1034B000F0E0EE0FFF1FE755F54F808191810E94EC
:1034C000A6429B01AC01C401B3010E94634E0E945D
:1034D000AC4F262F372F482F592F57FF07C0509535
:1034E0004095309521953F4F4F4F5F4F2430310528
:1034F000410551052CF066D6E62EF72E082F192F20
:10350000FFEFEF16FFEFFF06FFEF0F07FFEF1F07BD
:1035100051F017FD6CC556D66E197F0927E2603150
:10352000720708F064C54ED66A197B098C099D099B
:10353000693E33E0730730E0830730E0930708F01B
:10354000EECE6BCF83E50E94D10A882361F00E9402
:10355000BD0A0E94AC4FDC01CB010E945642909301
:10356000AC0A8093AB0A2ED67B018C01E4E5F2E035
:10357000A490E0E5F2E08490ECE4F2E0D490EAE09C
:103580006E2E71C01FD66E197F09800B910B693E9C
:10359000E3E07E07E0E08E07E0E09E0708F45EC00F
:1035A0006091A902E62FF0E0EE0FFF1FE355F54F03
:1035B000808191810E94A642AB01BC018A2DE4E585
:1035C000F2E008C09091C00095FFFCCF8093C60048
:1035D000319684918823B1F78BE095E022E030E0CA
:1035E0000E947524882DE0E5F2E008C09091C000AB
:1035F00095FFFCCF8093C600319684918823B1F764
:103600006091A9028BE095E070E04AE050E00E94F2
:103610009C238D2DECE4F2E008C09091C00095FF52
:10362000FCCF8093C600319684918823B1F78091B6
:10363000AF0A9091B00A0E94204BAB01BC018BE015
:1036400095E022E030E00E9475248091C00085FF63
:10365000FCCF6092C600B6D57B018C010E94AB43C3
:1036600081E00E946C102091AB0A3091AC0A8091ED
:10367000AF0A9091B00A821793070CF483CFC0C4AD
:1036800083E50E94D10A8823F1F00E94BD0A20E060
:1036900030E0A9010E943D4F87FD0FC00E94BD0A86
:1036A00020E030E04FE753E40E94405118163CF010
:1036B0000E94BD0A0E94B14F03C060E001C06FEFDD
:1036C0006093AA0291C48FEF8093AA028DC41092D6
:1036D000AA028AC41092890287C481E08093890279
:1036E00083C483E50E94D10A882399F00E94BD0A11
:1036F00020E030E04AE754E40E9412520E94B14FA9
:103700006093EE017093EF018093F0019093F101CB
:103710006BC488E50E94D10A882309F07BC489E53F
:103720000E94D10A882309F075C48AE50E94D10A53
:10373000882309F06FC485E40E94D10A882309F028
:1037400069C40E9412415A980E947D414DC45A9802
:1037500089E50E94D10A81115A988AE50E94D10A0E
:10376000882309F441C45A983FC483E50E94D10AD2
:103770000E94BD0A20E030E04AE754E40E94125261
:103780000E94B14F6093B8027093B9028093BA025D
:103790009093BB0229C401E112E050E2E52E55E00E
:1037A000F52EF80181918F010E94D10A882339F00A
:1037B0000E94BD0AF701608371838283938324E0B2
:1037C00030E0E20EF31E32E00531130751F70CC46E
:1037D000E1EBF1E007C09091C00095FFFCCF809332
:1037E000C600319684918823B1F7FEC3EEEAF1E07A
:1037F00007C09091C00095FFFCCF8093C600319622
:1038000084918823B1F740918D0250918E0260918E
:103810008F02709190028BE095E022E030E00E94F0
:103820007524EBEAF1E007C09091C00095FFFCCF52
:103830008093C600319684918823B1F7409191021C
:103840005091920260919302709194028BE095E006
:1038500022E030E00E947524E8EAF1E007C0909190
:10386000C00095FFFCCF8093C600319684918823D9
:10387000B1F7409195025091960260919702709134
:1038800098028BE095E022E030E00E947524E5EAA2
:10389000F1E007C09091C00095FFFCCF8093C60077
:1038A000319684918823B1F74091990250919A0200
:1038B00060919B0270919C028BE095E022E030E0E9
:1038C0000E947524EBE9F1E007C09091C00095FFDC
:1038D000FCCF8093C600319684918823B1F70E9473
:1038E0006B410E94DF4F20912005309121054091CE
:1038F0002205509123050E94444FAB01BC018BE08F
:1039000095E022E030E0F1D7E8E9F1E007C09091DE
:10391000C00095FFFCCF8093C60031968491882328
:10392000B1F781E00E946B410E94DF4F2091240596
:103930003091250540912605509127050E94444F5E
:10394000AB01BC018BE095E022E030E0CED7E5E9A9
:10395000F1E007C09091C00095FFFCCF8093C600B6
:10396000319684918823B1F782E00E946B410E94D6
:10397000DF4F209128053091290540912A0550916B
:103980002B050E94444FAB01BC018BE095E022E087
:1039900030E0ABD78091C00085FFFCCF22C3EEE8BA
:1039A000F1E007C09091C00095FFFCCF8093C60066
:1039B000319684918823B1F783B180FD03C0EDE196
:1039C000F1E009C0E0E2F1E006C09091C00095FF8F
:1039D000FCCF8093C60081918823B9F7E7E8F1E036
:1039E00007C09091C00095FFFCCF8093C600319630
:1039F00084918823B1F7199903C0EDE1F1E009C082
:103A0000E0E2F1E006C09091C00095FFFCCF80930A
:103A1000C60081918823B9F7E0E8F1E007C09091F2
:103A2000C00095FFFCCF8093C60031968491882317
:103A3000B1F71A9903C0EDE1F1E009C0E0E2F1E06D
:103A400006C09091C00095FFFCCF8093C600819185
:103A50008823B9F78091C00085FFFCCFC2C241E145
:103A6000E42E42E0F42E00E010E0F70181917F01A6
:103A70000E94D10A882339F10E94BD0A30E3A32EA7
:103A800035E0B32EA00EB11E0E94B14FF501608348
:103A90007183828393830E94BD0A2CE5A22E25E0C8
:103AA000B22EA00EB11EF801E05EFA4F20813181E6
:103AB000428153810E9412520E94B14FF5016083EE
:103AC0007183828393830C5F1F4F0031110569F668
:103AD0008BC201E112E090E1E92E95E0F92EF801A8
:103AE00081918F010E94D10A882339F00E94BD0A7A
:103AF000F701608371838283938324E030E0E20ED8
:103B0000F31E32E00531130751F76EC283E50E94C0
:103B1000D10A882351F00E94BD0A60934405709336
:103B20004505809346059093470584E50E94D10A98
:103B3000882309F459C20E94BD0A60934805709316
:103B4000490580934A0590934B054EC283E50E9438
:103B5000D10A882351F00E94BD0A609340057093FA
:103B60004105809342059093430584E50E94D10A64
:103B7000882351F00E94BD0A60935805709359053F
:103B800080935A0590935B0582E40E94D10A8823B2
:103B900061F00E94BD0A0E94B14F60930C057093C2
:103BA0000D0580930E0590930F0588E50E94D10ABC
:103BB000882351F00E94BD0A60934C0570934D0517
:103BC00080934E0590934F058AE50E94D10A882381
:103BD00051F00E94BD0A6093500570935105809387
:103BE00052059093530585E40E94D10A882309F475
:103BF000FBC10E94BD0A60935405709355058093E4
:103C0000560590935705F0C101E112E08DE9E82EC9
:103C100082E0F82EF80181918F010E94D10A882359
:103C200039F00E94BD0AF701608371838283938318
:103C300024E030E0E20EF31E32E00431130751F7C6
:103C4000D3C183E50E94D10A882309F4CDC10E9423
:103C5000BD0A0E94AC4F7093EB016093EA0181E0D2
:103C600080938C02C1C183E50E94D10A882309F4A4
:103C7000BBC10E94BD0A0E94AC4F7093ED016093DE
:103C8000EC01B2C180E50E94D10A882351F00E9464
:103C9000BD0A6093FC017093FD018093FE01909337
:103CA000FF0189E40E94D10A882381F00E94BD0AA5
:103CB00025E93FEB46ED5DE30E941252609300025E
:103CC00070930102809302029093030284E40E94A5
:103CD000D10A882381F00E94BD0A25E93FEB46ED19
:103CE0005DE30E94444F6093040270930502809349
:103CF00006029093070283E40E94D10A882351F0C0
:103D00000E94BD0A609308027093090280930A0220
:103D100090930B020E948341E9E7F1E006C0909185
:103D2000C00095FFFCCF8093C60081918823B9F72E
:103D3000ECE7F1E006C09091C00095FFFCCF8093C6
:103D4000C60081918823B9F74091FC015091FD0193
:103D50006091FE017091FF018BE095E022E030E080
:103D6000C4D5E0E8F1E006C09091C00095FFFCCF1B
:103D70008093C60081918823B9F760910002709109
:103D80000102809102029091030225E93FEB46ED8A
:103D90005DE30E94444FAB01BC018BE095E022E063
:103DA00030E0A3D5E4E8F1E006C09091C00095FFB3
:103DB000FCCF8093C60081918823B9F760910402FB
:103DC00070910502809106029091070225E93FEB70
:103DD00046ED5DE30E941252AB01BC018BE095E021
:103DE00022E030E082D5E8E8F1E006C09091C00022
:103DF00095FFFCCF8093C60081918823B9F760912D
:103E000008027091090280910A0290910B0225E943
:103E10003FEB46ED5DE30E941252AB01BC018BE02B
:103E200095E022E030E061D58091C00085FFFCCFB5
:103E3000D8C081E00E940E3AD7C083E50E94D10A23
:103E4000882319F00E94BD0A04C060E070E086E19A
:103E500093E40E949845C8C00E941241C5C080E00A
:103E600001C081E00E941A08BFC01092AB0280918D
:103E7000B0029091B102A091B202B091B3028093CE
:103E8000AC029093AD02A093AE02B093AF020E9439
:103E90000F0BAAC084E50E94D10A882309F45DC0F3
:103EA0000E94BD0A0E94B14F6093E902E6E6F1E08C
:103EB000662369F107C09091C00095FFFCCF809305
:103EC000C600319684918823B1F7ECE8F1E006C092
:103ED0009091C00095FFFCCF8093C600819188230C
:103EE000B9F78BE095E040E050E0F0D3EEE8F1E088
:103EF00006C09091C00095FFFCCF8093C6008191D1
:103F00008823B9F78091C00085FFFCCF6AC010926A
:103F1000A90207C09091C00095FFFCCF8093C60016
:103F2000319684918823B1F7EFE9F1E006C09091D2
:103F3000C00095FFFCCF8093C60081918823B9F71C
:103F40006091A9028BE095E070E04AE050E0F4D384
:103F50008091C00085FFFCCF44C0E6E6F1E007C0D9
:103F60009091C00095FFFCCF8093C600319684915C
:103F70008823B1F7EEE6F1E007C09091C00095FF0D
:103F8000FCCF8093C600319684918823B1F72091AD
:103F9000EA023091EB0280E690E0289FF001299F31
:103FA000F00D389FF00D1124E451FD4F06C09091A3
:103FB000C00095FFFCCF8093C60081918823B9F79C
:103FC000ECE6F1E007C09091C00095FFFCCF809334
:103FD000C600319684918823B1F78091C00085FF97
:103FE000FCCF8AE08093C6000E94F00A1CC0EAD091
:103FF0006093E5027093E6028093E7029093E802F3
:10400000E1D06093B4027093B5028093B6029093AE
:10401000B702EACF0E94124188E50E94D10A8823A4
:1040200009F095CB95CBA2960FB6F894DEBF0FBEE4
:10403000CDBFCF91DF911F910F91FF90EF90DF9057
:10404000CF90BF90AF909F908F907F906F905F9038
:104050004F903F902F90089580917C0490917D0423
:104060008330910514F40E943A0B80917C04909166
:104070007D040097C1F00E94CA1080917C04909149
:104080007D04019790937D0480937C048091EA02E3
:104090009091EB02019664E070E00E94F7529093D9
:1040A000EB028093EA020E94AB4381E00E946C1015
:1040B0000C94113A0E94184C8091AB028823A1F510
:1040C00081E08093AB028091AC029091AD02A0910F
:1040D000AE02B091AF028093B0029093B102A09370
:1040E000B202B093B302EBEBF0E007C09091C000D6
:1040F00095FFFCCF8093C600319684918823B1F759
:10410000E2ECF0E007C09091C00095FFFCCF8093F7
:10411000C600319684918823B1F78091C00085FF55
:10412000FCCF8AE08093C60008958091AB02089589
:10413000A4D00E942F0990DFFECF1F920F920FB6DE
:104140000F9211242F933F938F939F93AF93BF931D
:104150008091820490918304A0918404B09185049D
:1041600030918604232F2A592D3720F02D570196A0
:10417000A11DB11D20938604809382049093830433
:10418000A0938404B093850480917E0490917F0471
:10419000A0918004B09181040196A11DB11D80936E
:1041A0007E0490937F04A0938004B0938104BF9118
:1041B000AF919F918F913F912F910F900FBE0F90D4
:1041C0001F9018958FB7F894209182043091830442
:1041D00040918404509185048FBFB901CA010895AC
:1041E0003FB7F89480917E0490917F04A091800461
:1041F000B091810426B5A89B05C02F3F19F0019608
:10420000A11DB11D3FBFBA2FA92F982F8827820F5C
:10421000911DA11DB11D9C01AD01220F331F441F33
:10422000551F280F391F4A1F5B1FB901CA01089586
:10423000EF92FF920F931F93CF93DF937B018C013B
:10424000CFDFEB010EC0CCDF6C1B7D0B83E0683E43
:10425000780738F00894E108F10801091109C851FC
:10426000DC4FE114F1040105110569F7DF91CF91ED
:104270001F910F91FF90EF900895789484B582601C
:1042800084BD84B5816084BD85B5826085BD85B5FA
:10429000816085BDEEE6F0E0808181608083E1E8A9
:1042A000F0E01082808182608083808181608083E1
:1042B000E0E8F0E0808181608083E1EBF0E08081E4
:1042C00084608083E0EBF0E0808181608083EAE7B6
:1042D000F0E080818460808380818260808380813F
:1042E000816080838081806880831092C1000895FE
:1042F0001F93CF93DF93182FEB0161E084D02097B9
:1043000009F44AC0CF3FD10509F449C0E12FF0E0DC
:10431000ED57F04FE491E330C1F0E43028F4E130A0
:1043200051F0E230B1F50CC0E63019F1E73049F157
:10433000E43079F514C084B5806884BDC7BD32C04F
:1043400084B5806284BDC8BD2DC080918000806826
:1043500080938000D0938900C093880023C080910F
:104360008000806280938000D0938B00C0938A008D
:1043700019C08091B00080688093B000C093B300F2
:1043800011C08091B00080628093B000C093B400EF
:1043900009C0C038D1051CF4812F60E002C0812F14
:1043A00061E052D0DF91CF911F910895833071F079
:1043B000843028F48130A1F0823021F514C0863099
:1043C000B1F08730D1F08430E9F404C080918000EE
:1043D0008F7703C0809180008F7D80938000089547
:1043E00084B58F7702C084B58F7D84BD0895809198
:1043F000B0008F778093B00008958091B0008F7DDA
:104400008093B000089590E0FC01ED59F04F2491A5
:10441000FC01ED5BF04FE491EE23A9F0F0E0EC5CE1
:10442000F04FA491B0E0662341F49FB7F8948C91CB
:10443000209582238C939FBF08959FB7F8948C9109
:10444000822B8C939FBF08950F931F93DF93CF937D
:104450000F92CDB7DEB7282F30E0F901ED57F04FBE
:104460008491F901ED59F04F14912D5B304FF90112
:1044700004910023C9F0882319F0698397DF6981CB
:10448000E02FF0E0E75CF04FA491B0E0662331F458
:104490009FB7F8948C911095812304C09FB7F8942E
:1044A0008C91812B8C939FBF0F90CF91DF911F91A7
:1044B0000F9108951F920F920FB60F9211242F9310
:1044C0003F934F935F936F938F939F93EF93FF93DC
:1044D0006091C6002091070530910805C901019639
:1044E0008F7790704091090550910A0584179507C0
:1044F00041F029573B4FF901608390930805809361
:104500000705FF91EF919F918F916F915F914F916F
:104510003F912F910F900FBE0F901F9018959A0109
:10452000AB0182E08093C00060E47BE48CE490E027
:104530000E942C532150304040405040CA01B901E4
:1045400022E030E040E050E00E942C533093C50060
:104550002093C400E1ECF0E0808180618083808161
:1045600088608083808180688083089580910905B8
:1045700090910A0520910705309108052817390701
:1045800069F0FC01E957FB4F208101968F7790700D
:1045900090930A058093090530E002C02FEF3FEFAA
:1045A000C90108958091090590910A059093080525
:1045B0008093070508956F927F928F929F92AF929A
:1045C000BF92CF92DF92EF92FF920F931F93DF93F0
:1045D000CF93CDB7DEB7A0970FB6F894DEBF0FBE6E
:1045E000CDBF5C01CB01BA01611571058105910553
:1045F00031F4C50160E340E050E0A6D042C06E0156
:104600000894C11CD11CEE24FF248701622E77245C
:1046100088249924A40193010E940A53F60161930E
:104620006F010894E11CF11C011D111DB901CA01A3
:10463000611571058105910569F7D801C7010197D9
:10464000A109B1096E010894C11CD11CC80ED91E64
:1046500013C0F60160816A3010F4605D01C0695CCE
:10466000C50140E050E070D00894E108F10801096C
:1046700011090894C108D108E114F10401051105DC
:1046800041F7A0960FB6F894DEBF0FBECDBFCF9115
:10469000DF911F910F91FF90EF90DF90CF90BF902F
:1046A000AF909F908F907F906F9008952115310566
:1046B00039F48091C00085FFFCCF4093C600089577
:1046C0007ACF9A01AB0160E070E0F0CF9A01462FFB
:1046D00050E060E070E0EACFEF92FF920F931F93FB
:1046E000CF93DF93EC017A018B012115310539F469
:1046F0008091C00085FFFCCFE092C60016C02A3032
:10470000310591F477FF0CC06DE240E050E01CD021
:1047100010950095F094E094E11CF11C011D111D11
:10472000CE01B801A7012AE046DFDF91CF911F91AA
:104730000F91FF90EF9008959A01FB01AF0166275A
:1047400057FD6095762FC8CF9A01462F50E060E064
:1047500070E0C2CFCF93DF93EC016DE040E050E01A
:10476000F3DFCE016AE040E050E0EEDFDF91CF9171
:104770000895CF93DF93EC01A4DFCE01EBDFDF914F
:10478000CF9108958F929F92BF92CF92DF92EF9236
:10479000FF920F931F93CF93DF934C017A018B010C
:1047A000D22ECB01BA0120E030E0A9010E943D4F9A
:1047B00087FF09C0C4016DE240E050E0C5DF17FB90
:1047C000109517F91095C0E050E040E030E02FE37D
:1047D00011C0DA01F9016B2F742F8F2F922F20E077
:1047E00030E040E251E40E94444F562F472F382FCB
:1047F000292FCF5FCD1568F3C801B701DA01F901A0
:104800002B2F342F4F2F5E2F0E94644EC62EF72E73
:104810008C01912F0E94B14FC62FE72ED82FB92EB1
:104820000E94DD4F9B01AC016C2D7F2D802F912FBD
:104830000E94634EC62EF72E182F092FC4014C2F4D
:104840005E2D6D2F7B2D2AE030E030DFDD2009F476
:104850003EC0E1EBF1E006C09091C00095FFFCCFB7
:104860008093C60081918823B9F731C098016C2DDF
:104870007F2D832F902F20E030E040E251E40E9412
:1048800012528B01F82EE92E9701712F832F922F50
:104890000E94AC4F9B01AC01EB01C401B9014AE09D
:1048A00050E04ADFBE01882777FD8095982F0E944F
:1048B000DF4F9B01AC01F701602F712F8F2F9E2FCF
:1048C0000E94634EC62EF72E182F092FDA94DD2092
:1048D00069F6DF91CF911F910F91FF90EF90DF90DC
:1048E000CF90BF909F908F9008954CCF08950895DA
:1048F0002F923F924F925F926F927F928F929F92F0
:10490000AF92BF92CF92DF92EF92FF920F931F93DD
:10491000DF93CF93CDB7DEB7C055D0400FB6F89434
:10492000DEBF0FBECDBF4C017A8F698F3A012AA737
:104930000EABEFAAA8AEB9AECAAEDBAE022F10E046
:10494000000F111F000F111F9301200F311F3BABF0
:104950002AABD9012D903D904D905C90FC01E00F69
:10496000F11FC201B10120813181428153810E9436
:10497000644E6CAF7DAF8EAF9FAFBEA9EB2EFF2410
:10498000EE0CFF1CEE0CFF1CF301EE0DFF1DFDAB4A
:10499000ECABA080B180C280D380F401EE0DFF1D8E
:1049A000C601B50120813181428153810E94644E4C
:1049B00021966FAF219722967FAF229723968FAFD4
:1049C000239724969FAF2497FFA98F2F90E0880FFD
:1049D000991F880F991FF401E80FF91F2081318179
:1049E000428153812B8F3C8F4D8F5E8F498D5A8D25
:1049F000840F951FDC016D917D918D919C912B8D84
:104A00003C8D4D8D5E8D0E94634E262F372F482F93
:104A1000592F2F8F38A349A35AA3E98DFA8D3C96BD
:104A20002996FFAFEEAF2997A98DBA8D1C962D91CF
:104A30003D914D915C911F972EA73FA748AB59AB75
:104A4000D4011C962D913D914D915C911F972BA304
:104A50003CA34DA35EA3A20191015058298B3A8B30
:104A60004B8B5C8B1501260157FA509457F85094E4
:104A7000E98DFA8DE00FF11F608171818281938150
:104A8000BCADADADFEADEFAD2B2F3A2F4F2F5E2F4E
:104A90000E94634EB62EA72E882E692EE98DFA8DC0
:104AA000EE0DFF1D60817181828193812196BFADE2
:104AB00021972296AFAD22972396FFAD2397249698
:104AC000EFAD24972B2F3A2F4F2F5E2F0E94634E6E
:104AD0008B01F82EE92E69897A898B899C89F701E7
:104AE000202F312F4F2F5E2F0E9412526D8B7E8B05
:104AF0008F8B988FC201B101D5012B2F3A2F482DF2
:104B0000562D0E9412529B01AC016D897E898F89BE
:104B1000988D0E94634E6D8B7E8B8F8B988F6989E9
:104B20007A898B899C89D5012B2F3A2F482D562DB8
:104B30000E9412525B016C01C201B101F701202FEA
:104B4000312F4F2F5E2F0E9412529B01AC01C601E4
:104B5000B5010E94644E9B01AC016D897E898F89ED
:104B6000988D0E94D74E162F072FF82EE92EA801F8
:104B70009701652F742F832F922F20E030E0A90139
:104B80000E943D4F87FF10C0A8019701652F742F29
:104B9000832F922F2BED3FE049EC50E40E94644EAE
:104BA000162F072FF82EE92EAA968FADAA978823E5
:104BB00081F0A8019701652F702F832F9E2D2BED7B
:104BC0003FE049EC50E40E94634E162F072FF82E69
:104BD000E92EA8019701652F702F832F9E2DA9968E
:104BE0002CAD3DAD4EAD5FADA9970E9412522F8DF9
:104BF00038A149A15AA15F770E944D515B016C0118
:104C00002FE632E143E85AE30E943D4F87FDA6C2FA
:104C1000C601B5010E941A500E94B14F7DA76CA732
:104C20006115710521F481E090E09DA78CA7ACA5EA
:104C3000BDA5BD0180E090E00E94DD4F5B016C01ED
:104C4000A8019701652F702F832F9E2DA601950136
:104C50000E94444F6D8B7FA388A799A76F8D78A181
:104C600089A19AA1A60195010E94444F2A966FAF8F
:104C70002A972B967FAF2B972C968FAF2C972D963C
:104C80009FAF2D976EA57FA588A999A92BA13CA1BF
:104C90004DA15EA10E94634EA60195010E94444F62
:104CA0002E966FAF2E972F967FAF2F9760968FAF70
:104CB000609761969FAF61975D894FA138A529A53F
:104CC000652F742F832F922F20E030E040E05FE3C8
:104CD0000E941252BD89AFA1F8A5E9A52B2F3A2F4A
:104CE0004F2F5E2F0E9412529B01AC0160E070E0DA
:104CF00080E89FE30E94634E6EA725967FAF2597BD
:104D000026968FAF269727969FAF2797BFA9EB2FA1
:104D1000F0E0EE0FFF1FEE0FFF1FCE010196E80F30
:104D2000F91F2B8D3C8D4D8D5E8D20833183428309
:104D300053832BA13CA14DA15EA12D873E874F87B8
:104D4000588BBB2441E050E05CA34BA3BAA5AB2F2A
:104D5000B0E0AA0FBB1FAA0FBB1F9C012A0F3B1F6D
:104D60003C8F2B8F5EA9452F50E0440F551F440FF9
:104D7000551F81E090E08C0F9D1F840F951F98A315
:104D80008F8FFBA7EAA7CAC19B2D99310CF068C091
:104D900069897A898B899C89BD89AFA1F8A5E9A524
:104DA0002B2F3A2F4F2F5E2F0E9412527B018C0126
:104DB000C201B101BEA52596AFAD25972696FFADE0
:104DC00026972796EFAD27972B2F3A2F4F2F5E2F41
:104DD0000E9412529B01AC01C801B7010E94644EAF
:104DE000D62EA72E882E692E69897A898B899C896F
:104DF000BEA52596AFAD25972696FFAD269727969B
:104E0000EFAD27972B2F3A2F4F2F5E2F0E94125274
:104E1000162F072FF82EE92EC201B101BD89AFA1CF
:104E2000F8A5E9A52B2F3A2F4F2F5E2F0E94125283
:104E30009B01AC01D801F7016B2F7A2F8F2F9E2F8A
:104E40000E94634E262F372F482F592F298B3A8BDC
:104E50004B8B5C8BB3942D2C3A2C482C562C6AC06F
:104E6000ABA1BCA1BD0180E090E00E94DD4FBD89F7
:104E7000AFA1F8A5E9A52B2F3A2F4F2F5E2F0E9447
:104E800012527B018C017F2D912F0E94414F1B01FB
:104E90002C016E2D7F2D802F912F0E9475525B016A
:104EA0006C01EAA9FBA9E080F1800281138117FB64
:104EB000109517F91095ACA9BDA96D907D908D90B6
:104EC0009C90C801B701A20191010E941252698B06
:104ED0007A8B8B8B9C8BC401B301A60195010E9438
:104EE00012529B01AC0169897A898B899C890E9445
:104EF000644E262F372F482F592F298B3A8B4B8BF7
:104F00005C8BC801B701A60195010E9412527B017A
:104F10008C01C401B301A20191010E9412529B01B4
:104F2000AC01C801B7010E94634E262E372E482ED1
:104F3000592EBB245CAD4DAD3EAD2FAD652F742F0A
:104F4000832F922F29893A894B895C890E94644E6C
:104F5000EB8DFC8D608371838283938321965FAD9B
:104F6000219722964FAD229723963FAD2397249603
:104F70002FAD2497652F742F832F922FA2019101BB
:104F80000E94644EAF8DB8A16D937D938D939C93D9
:104F90001397EAA5FBA560817181828193812A968E
:104FA000BFAD2A972B96AFAD2B972C96FFAD2C97C4
:104FB0002D96EFAD2D972B2F3A2F4F2F5E2F0E945E
:104FC000644EAAA5BBA56D937D938D939C93139777
:104FD0006D857E858F8598892E96BFAD2E972F96ED
:104FE000AFAD2F976096FFAD60976196EFAD61977B
:104FF0002B2F3A2F4F2F5E2F0E94644E6D877E8796
:105000008F87988B69817A818B819C8120E030E049
:10501000A9010E943D4F87FF07C080E090E0DC01BE
:1050200089839A83AB83BC836D817E818F819885D0
:1050300020E030E0A9010E943D4F87FF07C080E0DB
:1050400090E0DC018D839E83AF83B88769857A8584
:105050008B859C8520E030E0A9010E943D4F87FFB1
:1050600007C080E090E0DC0189879A87AB87BC8726
:1050700069817A818B819C8120E030E04DE453E4AA
:105080000E944051181644F480E090E0ADE4B3E48F
:1050900089839A83AB83BC836D817E818F81988560
:1050A00020E030E04DE453E40E944051181644F4EF
:1050B00080E090E0ADE4B3E48D839E83AF83B88756
:1050C00069857A858B859C8520E030E040EF52E44D
:1050D0000E944051181644F480E090E0A0EFB2E442
:1050E00089879A87AB87BC87CE010196BE016B5F2B
:1050F0007F4FAE01475F5F4F9E01235F3F4FE8AC9C
:10510000F9AC0AAD1BADFAE6CF2ED12CCC0EDD1ECC
:10511000D5D4EBA1FCA13196FCA3EBA32BA13CA120
:105120004CA55DA52417350708F42ECE698D7A8D20
:105130006C5F7F4F498D5A8D485F5F4F898D9A8D87
:1051400029962EAD3FAD2997E8ACF9AC0AAD1BAD61
:10515000EAE6CE2ED12CCC0EDD1EB0D4C05BDF4FE4
:105160000FB6F894DEBF0FBECDBFCF91DF911F9178
:105170000F91FF90EF90DF90CF90BF90AF909F90F6
:105180008F907F906F905F904F903F902F900895F9
:105190008F5F803109F480E008952F923F924F9203
:1051A0005F926F927F928F929F92AF92BF92CF92B7
:1051B000DF92EF92FF920F931F93DF93CF93CDB7C0
:1051C000DEB76A970FB6F894DEBF0FBECDBF9A8FD9
:1051D000898F3A014B0178018901DC01D8966D91E4
:1051E0007D918D919C91DB970E94DD4F5B016C015D
:1051F000A40193010E9412520E942A4F0E94B14FB3
:10520000262F372F482F592F2D873E874F87588BB2
:10521000C601B501A80197010E9412520E942A4FAF
:105220000E94B14F9B01AC01298B3A8B4B8B5C8B5D
:105230008D859E85AF85B88988379105A105B10513
:1052400040F488E790E0A0E0B0E08D879E87AF87CC
:10525000B88B283731054105510540F428E730E087
:1052600040E050E0298B3A8B4B8B5C8BE98DFA8DBB
:10527000EC5BFF4F6080718082809380A98DBA8D36
:10528000DC966D917D918D919C91DF970E94DD4F11
:105290006D837E838F839887C401B3010E94DF4FA3
:1052A0001B012C0120E030E0A9010E943D4F882322
:1052B00029F1C601B501A60195010E9412527B0198
:1052C0008C016D817E818F8198859B01AC010E944C
:1052D00012529B01AC01C801B7010E94634E7B01D1
:1052E0008C01C201B101A20191010E94644E9B0197
:1052F000AC01C801B7010E94444F04C060E070E0F7
:1053000080E090E00E942A4F0E94AC4F69837A832C
:105310008B839C83E980FA800B811C81E98DFA8D57
:10532000E05CFF4F60817181828193810E94DD4F3B
:1053300069877A878B879C8766277727CB016619D1
:105340007709880999090E94DF4F3B014C0120E051
:1053500030E0A9010E943D4F882349F169857A8593
:105360008B859C859B01AC010E9412526D8B7E8BBC
:105370008F8B988FC601B501A60195010E9412522C
:105380009B01AC016D897E898F89988D0E94634E47
:105390005B016C01C401B301A40193010E94644E3E
:1053A0009B01AC01C601B5010E94444F04C060E0FE
:1053B00070E080E090E00E941A50E98DFA8DA0889C
:1053C000B188C288D3883501460129813A814B8151
:1053D0005C81621A730A840A950A0E94AC4FA40188
:1053E0009301261B370B480B590BDA01C90157FFF4
:1053F00068C0C201B10120E030E0A9010E943D4F28
:10540000882309F443C0C201B101A20191010E94A5
:10541000644E7B018C01C601B5010E94DD4F9B01EA
:10542000AC01C801B7010E9412527B018C016D8151
:105430007E818F8198859B01AC010E9412529B0155
:10544000AC01C801B7010E94634E7B018C016985E4
:105450007A858B859C859B01AC010E9412529B0131
:10546000AC01C801B7010E94644E7B018C01C201EE
:10547000B10120E030E040E850E40E9412529B016C
:10548000AC01C801B7010E94444F04C060E070E065
:1054900080E090E00E942A4F0E94AC4FE62EF72E4B
:1054A000082F192F17FF03C0EE24FF248701EA14E9
:1054B000FB040C051D0510F08601750180E090E0ED
:1054C000DC012FB7F894E98DFA8DE45BFF4F308152
:1054D000332311F5E98DFA8DE48AF58A068B178B53
:1054E000E80EF91E0A1F1B1FE08EF18E028F138F2C
:1054F0008D859E85AF85B88984AF95AFA6AFB7AFD0
:10550000AF01405C5F4F89899A89AB89BC89FA01F8
:1055100080839183A283B3832FBF6A960FB6F894DA
:10552000DEBF0FBECDBFCF91DF911F910F91FF90D6
:10553000EF90DF90CF90BF90AF909F908F907F9033
:105540006F905F904F903F902F900895AF92BF92D1
:10555000CF92DF92EF92FF920F931F93CF93DF933F
:10556000EB018A01209709F472C04115510509F435
:105570006EC0DAA4CBA4BCA4ADA46EA17FA188A503
:1055800099A5D601F5012B2F3A2F4F2F5E2F0E94A0
:105590003D4F882309F45BC08FA9882309F04BC0D5
:1055A000F801E6A0F7A000A511A5A6019501652FB9
:1055B000742F832F922FA80197010E944051181633
:1055C000D4F5C801B701A80197010E9412527B01CE
:1055D0008C012AA93BA94CA95DA95058CA01B9015F
:1055E0000E94644E2EA53FA548A959A90E941252B7
:1055F0009B01AC01C801B7010E94634E0E947F521B
:10560000E62E172F082FF92EA6019501652F742F6E
:10561000832F922F2E2D312F402F5F2D0E943D4F33
:1056200087FF04C0ED2C1C2D0B2DFA2C5E2D412F75
:10563000302F2F2D02C0A6019501852F942FA32F67
:10564000B22F8EA39FA3A8A7B9A781E08EABDF914D
:10565000CF911F910F91FF90EF90DF90CF90BF906F
:10566000AF900895CF92DF92EF92FF920F931F9326
:10567000DF93CF930F92CDB7DEB780914C0A809124
:105680004C0A20914D0A90E04096821B91098F7040
:1056900090708430910544F120914C0A23502F7072
:1056A00040E050E000E010E08DE4E82EF12C18C05E
:1056B000222309F420E12150822F90E08E9D600189
:1056C0008F9DD00C9E9DD00C11248CE795E0C80EC8
:1056D000D91EC601B801298339DFA80186012981B5
:1056E00080914D0A281721F70F90CF91DF911F91DC
:1056F0000F91FF90EF90DF90CF9008958F929F923F
:10570000AF92BF92CF92DF92EF92FF920F931F93CF
:10571000CF93DF93EC016B01009709F467C08FA969
:10572000882309F063C0EEA0FFA008A519A5FB011E
:10573000B6A0A7A090A481A4C801B701D501F40127
:105740002B2F3A2F4F2F5E2F0E943D4F87FF4EC0C9
:10575000C801B701A80197010E9412527B018C0178
:105760002AA93BA94CA95DA95058CA01B9010E94B8
:10577000644E2EA53FA548A959A90E9412529B012B
:10578000AC01C801B7010E94634E0E947F52E62E11
:10579000C72FD82F192FA5019401652F742F832FA0
:1057A000922F2E2D3C2F4D2F512F0E943D4F87FFC2
:1057B00004C0EB2CCA2DD92D182DA5019401652FFD
:1057C0007A2D832F982D2E2D3C2F4D2F512F0E9457
:1057D0003D4F882359F08E2D9C2FAD2FB12FF60110
:1057E00086A397A3A0A7B1A781E086ABDF91CF9155
:1057F0001F910F91FF90EF90DF90CF90BF90AF90EF
:105800009F908F900895DF92EF92FF920F931F93D6
:10581000CF93DF93D0904D0A00E010E080E090E05D
:105820002DE4E22EF12C13C02D2D30E02E9DE00151
:105830002F9DD00D3E9DD00D1124C458DA4FB801D4
:10584000AE015CDF8D2DA4DCD82EC8018E01209125
:105850004C0AD21649F7B80140E050E04FDFDF9123
:10586000CF911F910F91FF90EF90DF9008952F92AD
:105870003F924F925F926F927F928F929F92AF92E0
:10588000BF92CF92DF92EF92FF920F931F93CF932D
:10589000DF93F0904D0AC0E0D0E03DE4632E712C20
:1058A0003EC0069D6001079DD00C169DD00C1124B2
:1058B0008CE795E0C80ED91E209769F18EA9882340
:1058C00021F4F60186A9882331F18AA09BA0ACA01F
:1058D000BDA06EA17FA188A599A5A50194010E94F4
:1058E000444F1B012C01069DF001079DF00D169DF4
:1058F000F00D1124E458FA4F66A177A180A591A577
:10590000A50194010E94444F8B019C01CE01B2017C
:10591000A10143DC1EAA8F2D3BDCF82EE6010F2DE2
:10592000112707FD109580914C0A90E00817190780
:1059300009F0B7CF2097E9F0CAA0DBA0ECA0FDA04A
:105940006EA17FA188A599A5A70196010E94444F49
:105950004B015C016DEC7CEC8CE49DE3A7019601AE
:105960000E94444F8B019C01CE01B501A40115DCBE
:105970001EAADF91CF911F910F91FF90EF90DF90C2
:10598000CF90BF90AF909F908F907F906F905F90DF
:105990004F903F902F90089565DE35DF68CF1092CD
:1059A0004C0A10924D0A80E1ECE6F5E0DF011D9211
:1059B0008A95E9F780E090E0DC018093530A9093A8
:1059C000540AA093550AB093560A8093570A9093AD
:1059D000580AA093590AB0935A0A80935B0A90938D
:1059E0005C0AA0935D0AB0935E0A80935F0A90936D
:1059F000600AA093610AB093620A80934F0A909361
:105A0000500AA093510AB093520A0895CF939091EF
:105A10004D0A80914C0A981779F140914D0A242F34
:105A200030E08DE490E0289FF001299FF00D389F31
:105A3000F00D1124EC53FA4FC08150E02DE430E01A
:105A400016C0842F90E0829FF001839FF00D929FFB
:105A5000F00D1124EC53FA4F80819181A281B38122
:105A60000097A105B10509F05F5F4F5F4F7080910E
:105A70004C0A481731F70AC06091AA02662321F048
:105A80008EE070E00E947821C0E050E08091AA0290
:105A9000882339F4552329F48EE060E070E00E94F9
:105AA00078218091AA02882339F0CC2329F08EE056
:105AB0006C2F70E00E947821CF9108952F923F9231
:105AC0004F925F926F927F928F929F92AF92BF920E
:105AD000CF92DF92EF92FF920F931F93DF93CF93BA
