:10000000FCC700000C941A080C941A080C941A08E7
:100010000C941A080C941A080C941A080C941A08D8
:100020000C941A080C941A080C941A080C941A08C8
:100030000C941A080C947F39FDC70000FBC7000020
:10004000F9C700000C949A490C943321F3C70000BF
:100050000C94E122EFC70000EDC70000EBC70000E1
:10006000E9C70000E7C70000E5C70000E3C70000DC
:10007000084AD73B3BCE016E84BCBFFDC12F3D6C0F
:1000800074319ABD56833DDA3D00C77F11BED9E475
:10009000BB4C3E916BAAAABE000000803F05A84C55
:1000A000CDB2D44EB93836A9020C50B99186880821
:1000B0003CA6AAAA2ABE000000803F6563686F3A8A
:1000C00000737461727400506F7765725570002010
:1000D00045787465726E616C20526573657400209A
:1000E00042726F776E206F7574205265736574006D
:1000F000205761746368646F67205265736574008C
:1001000020536F6674776172652052657365740061
:100110004D61726C696E3A2000312E302E302052C3
:10012000433200204C6173742055706461746564BF
:100130003A2000323031322D30352D303200207CE3
:1001400020417574686F723A20006572696B0020F7
:1001500046726565204D656D6F72793A20002020EA
:10016000506C616E6E657242756666657242797436
:1001700065733A20004572726F723A004C696E6581
:10018000204E756D626572206973206E6F74204C0D
:10019000617374204C696E65204E756D6265722BBB
:1001A000312C204C617374204C696E653A00636891
:1001B00065636B73756D206D69736D617463682C15
:1001C000204C617374204C696E653A004E6F204379
:1001D0006865636B73756D2077697468206C696EF0
:1001E00065206E756D6265722C204C617374204CB5
:1001F000696E653A004E6F204C696E65204E756DD4
:10020000626572207769746820636865636B7375D3
:100210006D2C204C617374204C696E653A006F6BD5
:10022000005072696E7465722073746F70706564CB
:100230002064657520746F206572726F72732E2052
:1002400046697820746865206572726F7220616EED
:100250006420757365204D39393920746F207265BB
:100260007374617274212E202854656D70657261FB
:10027000747572652069732072657365742E2053DE
:100280006574206974206265666F7265207265739B
:1002900074617274696E6729006F6B20543A002094
:1002A0002F0020423A00202F0020403A00543A000C
:1002B00020453A0020573A00543A0020453A0020A1
:1002C000423A004649524D574152455F4E414D45D5
:1002D0003A4D61726C696E2056313B2053707269E1
:1002E0006E7465722F6772626C206D6173687570D1
:1002F00020666F722067656E36204649524D574121
:1003000052455F55524C3A687474703A2F2F777784
:10031000772E6D656E64656C2D70617274732E63DB
:100320006F6D2050524F544F434F4C5F56455253C0
:10033000494F4E3A312E30204D414348494E455F9A
:10034000545950453A4D656E64656C204558545279
:10035000554445525F434F554E543A310A00583A7E
:1003600000593A005A3A00453A0020436F756E74BE
:1003700020583A00593A005A3A00785F6D696E3A4F
:1003800000795F6D696E3A007A5F6D696E3A00556B
:100390006E6B6E6F776E20636F6D6D616E643A2267
:1003A000002200526573656E643A006F6B005072F4
:1003B000696E7465722068616C7465642E206B6967
:1003C0006C6C28292063616C6C65642021210050CD
:1003D00072696E7465722073746F707065642064E6
:1003E000657520746F206572726F72732E20466976
:1003F0007820746865206572726F7220616E642067
:10040000757365204D39393920746F2072657374A6
:10041000617274212E202854656D70657261747547
:1004200072652069732072657365742E205365743C
:10043000206974206265666F7265207265737461ED
:100440007274696E6729000000000102000000005C
:100450000000000403070600000000000000000088
:10046000000000000000000102040810204080018C
:1004700002040810204080010204081020408080FF
:1004800040201008040201020202020202020204D9
:100490000404040404040403030303030303030127
:1004A00001010101010101002225282B002124273F
:1004B0002A6563686F3A0020636F6C642065787406
:1004C000727573696F6E2070726576656E7465649F
:1004D0000020746F6F206C6F6E6720657874727582
:1004E00073696F6E2070726576656E746564006501
:1004F00063686F3A00656E6473746F707320686927
:10050000743A200020583A0020593A00205A3A0004
:1005100024F427D3FD204D0FB0119A05160CE902E3
:100520002D09C801650733013206DE005405A70016
:10053000AD0483002A046900C10356006B03480020
:1005400023033D00E6023500B1022D00840228009D
:100550005C0223003902200019021C00FD01190071
:10056000E4011700CD011500B8011300A501110029
:100570009401100084010F0075010E0067010D0049
:100580005A010C004E010B0043010A0039010A0018
:100590002F010900260109001D01080015010700AF
:1005A0000E01080006010700FF000600F900060022
:1005B000F3000600ED000600E7000500E20005007C
:1005C000DD000500D8000500D3000400CF000500C1
:1005D000CA000400C6000400C2000400BE000300FC
:1005E000BB000400B7000300B4000300B100040026
:1005F000AD000300AA000300A7000200A50003004D
:10060000A20003009F0002009D0003009A00020068
:100610009800030095000200930002009100020080
:100620008F0002008D0002008B0002008900020092
:1006300087000200850002008300020081000100A3
:10064000800002007E0002007C0001007B000200AE
:1006500079000100780002007600010075000100B9
:1006600074000200720001007100010070000200BD
:100670006E0001006D0001006C0001006B000200C3
:1006800069000100680001006700010066000100C8
:1006900065000100640001006300010062000100C8
:1006A00061000100600001005F0001005E000100C8
:1006B0005D0001005C0001005B0000005B000100C8
:1006C0005A000100590001005800010057000000C5
:1006D00057000100560001005500010054000000C1
:1006E00054000100530001005200010051000000BD
:1006F00051000100500001004F0000004F000100B8
:100700004E0000004E0001004D0001004C000000B2
:100710004C0001004B0000004B0001004A000100AA
:1007200049000000490001004800000048000100A5
:10073000470000004700010046000000460001009D
:100740004500000045000100440000004400010095
:10075000430000004300010042000000420001008D
:100760004100000041000000410001004000000085
:10077000400001003F0000003F0001003E0000007B
:100780003E0000003E0001003D0000003D00010071
:100790003C0000003C0000003C0001003B00000069
:1007A0003B0000003B0001003A0000003A0000005E
:1007B0003A00010039000000390000003900010052
:1007C0003800000038000000380001003700000049
:1007D000370000003700010036000000360000003E
:1007E0003600010035000000350000003500000033
:1007F0003500010034000000340000003400010026
:10080000330000003300000033000000330001001B
:10081000320000003200000032000000320001000F
:100820003100000031000000310000003100010003
:1008300030000000300000003000000030000100F7
:100840002F0000002F0000002F0000002F000100EB
:100850002E0000002E0000002E0000002E000000E0
:100860002E0001002D0000002D0000002D000000D2
:100870002D0001002C0000002C0000002C000000C6
:100880002C0000002C0001002B0000002B000000B9
:100890002B0000002B0000002B0001002A000000AC
:1008A0002A0000002A0000002A0000002A000000A0
:1008B0002A00010029000000290000002900000092
:1008C0002900000029000000290001002800000084
:1008D0002800000028000000280000002800010077
:1008E000270000002700000027000000270000006C
:1008F000270000002700000027000100260000005C
:10090000260000002600000026000000260000004F
:1009100024F4B12873CB111D62AECC159698F41057
:10092000A287900D127A190BF96E4009B965D307A9
:10093000E65DB5063157D005615116054B4C7D0477
:10094000CE47FD03D14392033F403603093DE90200
:10095000203AA4027C376A0212353602DC320802E1
:10096000D430E101F32EBD01362D9E01982B81017B
:10097000172A6701B028500160273B01252628016E
:10098000FD241601E7230701E022F800E821EB002F
:10099000FD20DE001F20D3004C1FC800841EBF00B6
:1009A000C51DB500101DAD00631CA500BE1B9E003B
:1009B000201B9700891A9100F8198A006E1985008A
:1009C000E9187F006A187B00EF177600791771002D
:1009D00008176D009B166A0031166500CC15620081
:1009E0006A155F000B155B00B014580058145600D0
:1009F00002145200B013500060134E0012134B004B
:100A0000C71249007E12460038124500F311430018
:100A1000B011400070113F0031113D00F4103C0056
:100A2000B8103A007E103800461037000F1035001D
:100A3000DA0F3400A60F3300730F3100420F30007D
:100A4000120F3000E20E2D00B50E2D00880E2C0086
:100A50005C0E2B00310E2A00070E2800DF0D280047
:100A6000B70D2700900D26006A0D2600440D2400C6
:100A7000200D2400FC0C2300D90C2200B70C22000E
:100A8000950C2100740C2000540C1F00350C1F0025
:100A9000160C1F00F70B1E00D90B1D00BC0B1C0011
:100AA000A00B1C00840B1C00680B1B004D0B1B00D3
:100AB000320B1A00180B1900FF0A1900E60A190078
:100AC000CD0A1800B50A18009D0A1800850A1700FB
:100AD0006E0A1600580A1600420A16002C0A160062
:100AE000160A1500010A1500EC091400D8091400B3
:100AF000C4091400B00914009C09130089091300EB
:100B00007609130063091200510912003F0912000F
:100B10002D0911001C0912000A091100F908100022
:100B2000E9081100D8081000C8081000B808100023
:100B3000A808100098080F0089080F007A080F0015
:100B40006B080F005C080F004D080E003F080E00F8
:100B500031080E0023080E0015080E0007080D00CE
:100B6000FA070D00ED070D00E0070D00D3070D009B
:100B7000C6070D00B9070C00AD070C00A1070D005A
:100B800094070B0089070C007D070C0071070C000F
:100B900065070B005A070B004F070B0044070B00BB
:100BA00039070B002E070B0023070B0018070A005C
:100BB0000E070B0003070A00F9060A00EF060A00F9
:100BC000E5060A00DB060A00D1060900C8060A008D
:100BD000BE060900B5060A00AB060900A206090018
:100BE0009906090090060900870609007E0609009B
:100BF000750609006C060800640609005B0608001B
:100C0000530609004A060800420608003A06080092
:100C1000320608002A060800220608001A06080004
:100C2000120607000B06080003060800FB05070074
:100C3000F4050800EC050700E5050700DE050700E0
:100C4000D7050700D0050700C9050700C205070042
:100C5000BB050700B4050700AD050700A6050600A3
:100C6000A005070099050700920506008C050600FF
:100C7000860507007F050600790506007305070055
:100C80006C05060066050600600506005A050600AC
:100C9000540506004E0506004805060042050500FD
:100CA0003D05060037050600310505002C05060048
:100CB00026050500210506001B0505001605060092
:100CC000100505000B0505000605060000050500DA
:100CD000FB040500F6040500F1040500EC04050022
:100CE000E7040500E2040500DD040500D804050062
:100CF000D3040500CE040500C9040500C4040500A2
:100D0000BF040400BB040500B6040500B1040500DF
:100D100020626961733A200020643A2000206D69E6
:100D20006E3A2000206D61783A2000204B753A2001
:100D3000002054753A200020436C61736963205091
:100D400049442000204B703A2000204B693A200093
:100D5000204B643A2000504944204175746F7475EB
:100D60006E65206661696C6564212054656D7065EF
:100D700072617475726520746F2068696768006FAE
:100D80006B20543A0020403A005049442041757489
:100D90006F74756E65206661696C65642120746985
:100DA0006D656F757400504944204175746F74759A
:100DB0006E652066696E6973686564202120506CD9
:100DC00061636520746865204B702C204B6920613D
:100DD0006E64204B6420636F6E7374616E74732055
:100DE000696E2074686520636F6E666967757261ED
:100DF00074696F6E2E68004572726F723A00202D12
:100E000020496E76616C69642065787472756465DA
:100E100072206E756D62657221001000C90220019A
:100E20003C0130020A014003EF005004DD00600580
:100E3000D0007006C5008007BC009008B500A0096E
:100E4000AE00B00AA900C00BA300D00C9F00E00DBB
:100E50009A00F00E96000010930010118F002012DF
:100E60008C003013880040148500501582006016F5
:100E7000800070177D0080187A0090197800A01A01
:100E80007500B01B7300C01C7000D01D6E00E01E0A
:100E90006C00F01F6A00002167001022650020230B
:100EA00063003024610040255F0050265C0060270D
:100EB0005A007028580080295600902A5400A02B10
:100EC0005100B02C4F00C02D4D00D02E4B00E02F14
:100ED0004800F03046000032430010334000203418
:100EE0003D0030353A004036370050373400603826
:100EF000300070392C00803A2800903B2200A03C42
:100F00001C00B03D1400C03E0800D03F0000202D62
:100F100020496E76616C69642065787472756465C9
:100F200072206E756D6265722021003A20457874DA
:100F30007275646572207377697463686564206F85
:100F400066662E204D415854454D50207472696795
:100F500067657265642021003A2045787472756473
:100F60006572207377697463686564206F66662EA6
:100F7000204D494E54454D50207472696767657223
:100F8000656420210054656D7065726174757265C9
:100F90002068656174656420626564207377697494
:100FA00063686564206F66662E204D415854454D38
:100FB0005020747269676765726564202121004959
:100FC0004E46494E4954594E414E000020410000C2
:100FD000C84200401C4620BCBE4CCA1B0E5AAEC5BF
:100FE0009D74CDCCCC3D0AD7233C17B7D13877CCF4
:100FF0002B329595E6241FB14F0A11241FBECFEF67
:10100000D0E1DEBFCDBF12E0A0E0B1E0E8EDFAEA4A
:1010100002C005900D92A038B107D9F71AE0A0E8F8
:10102000B2E001C01D92A13FB107E1F70E942E215D
:101030000C946A550C940000AF92BF92CF92DF924D
:10104000EF92FF920F931F93CF93DF93CDB7DEB74D
:10105000E0970FB6F894DEBF0FBECDBF80E1E7E3A7
:10106000F1E0DE01919601900D928A95E1F780E121
:10107000E7E4F1E0DE01519601900D928A95E1F7E7
:1010800080E1E7E5F1E0DE01119601900D928A958D
:10109000E1F76E0181E2C80ED11C85E2E82E8AE0FC
:1010A000F82E8E010F5E1F4F65E37AE0AE014F5FB1
:1010B0005F4F95E1A92E9AE0B92E20E030E0F601CD
:1010C00081919191A191B1916F01F70181939193D8
:1010D000A193B1937F01F80181919191A191B19177
:1010E0008F01FB0181939193A193B193BF01FA0109
:1010F00081919191A191B191AF01F501819391936A
:10110000A193B1935F012F5F3F4F24303105B9F6B2
:1011100080E090E0AAEFB3E480930D0A90930E0A6A
:10112000A0930F0AB093100A80E090E8ABE3B5E417
:101130008093090A90930A0AA0930B0AB0930C0AB1
:101140001092110A1092120A1092130A1092140AA5
:1011500080E29EE4A0E0B0E08093450A9093460AC6
:10116000A093470AB093480A1092F9091092FA091D
:101170001092FB091092FC0980E090E0A0EAB1E433
:101180008093050A9093060AA093070AB093080A71
:101190008DEC9CECACECBEE38093010A9093020AC8
:1011A000A093030AB093040A80E090E0A0EAB0E4C0
:1011B0008093FD099093FE09A093FF09B093000A64
:1011C000EBEBF0E007C09091C00095FFFCCF80935F
:1011D000C600319684918111F6CFE7E6F1E006C0B2
:1011E0009091C00095FFFCCF8093C6008191811142
:1011F000F7CF8091C00085FFFCCF8AE08093C600C6
:10120000E0960FB6F894DEBF0FBECDBFDF91CF9151
:101210001F910F91FF90EF90DF90CF90BF90AF9014
:101220000895CF93DF9300D0CDB7DEB78091EB0A5E
:101230009091EC0A9E012F5F3F4F009719F4215FB8
:101240003A4002C0281B390B3A83298389819A814D
:101250000F900F90DF91CF910895CF92DF92EF9290
:10126000FF920F931F93CF93DF9300D000D0CDB7A1
:10127000DEB740E052EC61E070E081E894E00E946B
:101280001623E1ECF0E007C09091C00095FFFCCF81
:101290008093C600319684918111F6CF8091C00071
:1012A00085FFFCCF8AE08093C6008BEB90E0FC01C9
:1012B00007C03091C00035FFFCCF2093C6003196A7
:1012C00024912111F6CF24B720FF14C0E7ECF0E001
:1012D00007C04091C00045FFFCCF3093C600319657
:1012E00034913111F6CF3091C00035FFFCCF3AE098
:1012F0003093C60021FF14C0EFECF0E007C040912E
:10130000C00045FFFCCF3093C600319634913111B7
:10131000F6CF3091C00035FFFCCF3AE03093C600E5
:1013200022FF14C0EFEDF0E007C04091C00045FF80
:10133000FCCF3093C600319634913111F6CF309105
:10134000C00035FFFCCF3AE03093C60023FF14C045
:10135000E0EFF0E007C04091C00045FFFCCF3093C4
:10136000C600319634913111F6CF3091C00035FF6F
:10137000FCCF3AE03093C60025FF14C0E0E0F1E076
:1013800007C03091C00035FFFCCF2093C6003196D6
:1013900024912111F6CF2091C00025FFFCCF2AE037
:1013A0002093C60014BEE0E1F1E007C03091C00018
:1013B00035FFFCCF2093C600319624912111F6CF42
:1013C000E9E1F1E007C03091C00035FFFCCF209388
:1013D000C600319624912111F6CF2091C00025FF3F
:1013E000FCCF2AE02093C600FC012491EBEBF0E057
:1013F00008C03091C00035FFFCCF2093C600319665
:1014000024912111F6CFE3E2F1E007C03091C00052
:1014100035FFFCCF2093C600319624912111F6CFE1
:10142000E3E3F1E007C03091C00035FFFCCF20932B
:10143000C600319624912111F6CFEEE3F1E007C00A
:101440003091C00035FFFCCF2093C6003196249127
:101450002111F6CFEAE4F1E007C03091C00035FF7A
:10146000FCCF2093C600319624912111F6CF209114
:10147000C00025FFFCCF2AE02093C600FC01849128
:10148000EBEBF0E008C09091C00095FFFCCF80939B
:10149000C600319684918111F6CFEFE4F1E007C0E8
:1014A0009091C00095FFFCCF8093C6003196849147
:1014B0008111F6CFB6DE4AE050E0BC0181E894E04D
:1014C0000E943C24EEE5F1E007C09091C00095FF3A
:1014D000FCCF8093C600319684918111F6CF4AE00B
:1014E00050E060ED74E081E894E00E943C2480913B
:1014F000C00085FFFCCF8AE08093C60010922A04CA
:1015000010922B0410922C0410922D0480E094DD94
:1015100025E1C22E2AE0D22E35E2E32E3AE0F32E68
:1015200009EE19E0F60161917191819191916F013C
:10153000F70121913191419151917F0129833A83A2
:101540004B835C830E94744C29813A814B815C817E
:101550000E94A94E0E94484CF801619371938193B7
:1015600091938F01F5E2CF16FAE0DF06D9F60E94DB
:101570005E440E94FD2C0F900F900F900F90DF9112
:10158000CF911F910F91FF90EF90DF90CF900C942F
:10159000773F809134049091350460E070E00196CB
:1015A0000C94FE4F80913404909135044AE050E051
:1015B00060E070E001960C944A5140912E045091E5
:1015C0002F0490E6949F9001959F300D1124682F71
:1015D00070E0C90186559D4F0E947C52909335045E
:1015E0008093340421E0892B09F420E0822F0895B0
:1015F0000E94782160933E0470933F0480934004DE
:1016000090934104EBEAF3E007C09091C00095FF8E
:10161000FCCF8093C600319684918111F6CF8091E2
:10162000C00085FFFCCF8AE08093C600089581E862
:1016300094E00E945B23E3EAF3E007C09091C000CE
:1016400095FFFCCF8093C600319684918111F6CF2F
:1016500040913A0450913B0460913C0470913D04E8
:101660004F5F5F4F6F4F7F4F2AE030E081E894E09B
:101670000E9406248091C00085FFFCCF8AE0809301
:10168000C600B6CF4F925F927F928F929F92AF9299
:10169000BF92CF92DF92EF92FF920F931F93CF935F
:1016A000DF9340E6742E54E0452E512CE1E2F2E047
:1016B00084906AE0B62EEEE1F2E0A490992493942F
:1016C0008091020590910305209104053091050554
:1016D000821B930B8F779927892B09F0FEC111C2CA
:1016E0008D3051F08A3321F490913104992321F007
:1016F0002F3531050CF4D4C12115310519F41092A0
:101700003104FFC18091A8029091A902789EE00166
:10171000799ED00D1124FE01E20FF31FE655FD4F17
:101720001082209131042111B6C110923104FC01C4
:10173000E65DFB4F10828E0106551D4F6EE470E092
:10174000C8010E947C52009709F403C190933504AC
:1017500080933404801B910B8C0F9D1F4AE050E056
:1017600060E070E085559D4F0E944A5160933604B9
:10177000709337048093380490933904C0903A04EE
:10178000D0903B04E0903C04F0903D04970186012A
:101790000F5F1F4F2F4F3F4F60177107820793074F
:1017A000C1F12091A8023091A902729EC001739EDE
:1017B000900D11246FE771E086559D4F0E9487526E
:1017C000892B39F5E5E7F1E007C09091C00095FF5E
:1017D000FCCF8093C600319684918111F6CFECE75F
:1017E000F1E007C09091C00095FFFCCF8093C60048
:1017F000319684918111F6CF2AE030E0B701A6013D
:1018000081E894E00E9406248091C00085FFFCCF0F
:101810008AC08091A8029091A902789E8001799E49
:10182000100D1124E801C655DD4F6AE270E0CE01CB
:101830000E947C52009721F450C0F3262F5F02C013
:1018400020E0F12CF801E20FF11DE655FD4F30814B
:101850003A3299F790933504809334048C1B9D0B96
:10186000800F911F60E070E085559D4F0E94FE4FF4
:101870000E94434C2F2D30E02617370709F458C03B
:10188000E5E7F1E007C09091C00095FFFCCF8093A1
:10189000C600319684918111F6CFEEEAF1E007C0DF
:1018A0009091C00095FFFCCF8093C6003196849143
:1018B0008111F6CF40913A0450913B0460913C0471
:1018C00070913D042AE030E081E894E00E94062413
:1018D0008091C00085FFFCCF26C0E5E7F1E007C09E
:1018E0009091C00095FFFCCF8093C6003196849103
:1018F0008111F6CFECECF1E007C09091C00095FFAC
:10190000FCCF8093C600319684918111F6CF2AE0F6
:1019100030E0B701A60181E894E00E94062480919E
:10192000C00085FFFCCF8AE08093C60080DE47C000
:101930008091360490913704A0913804B091390415
:1019400080933A0490933B04A0933C04B0933D04ED
:101950003BC06AE270E0C8010E947C52892BA1F171
:10196000E5E7F1E007C09091C00095FFFCCF8093C0
:10197000C600319684918111F6CFE5EFF1E007C002
:101980009091C00095FFFCCF8093C6003196849162
:101990008111F6CF40913A0450913B0460913C0490
:1019A00070913D042AE030E081E894E00E94062432
:1019B0008091C00085FFFCCF8AE08093C600109222
:1019C0003304109232049DC08091A8029091A90224
:1019D000789EE001799ED00D11248E0106551D4F91
:1019E00067E470E0C8010E947C52009709F43EC091
:1019F0009093350480933404801B910B8C0F9D1FB2
:101A000060E070E085559D4F0E94FE4F0E94434C60
:101A10006430710558F580918002811113C08A2DC0
:101A2000EEE1F2E008C09091C00095FFFCCF8093FA
:101A3000C600319684918111F6CF8091C00085FF58
:101A4000FCCF12C0882DE1E2F2E008C09091C00006
:101A500095FFFCCF8093C600319684918111F6CF1B
:101A60008091C00085FFFCCFB092C6008091A80293
:101A70009091A9020196B2010E948E4F9093A90203
:101A80008093A8028091A6029091A702019690935C
:101A9000A7028093A602109233041092320410CE53
:101AA0008B3311F49092310490913104911108CE4E
:101AB0004091A8025091A902749ED001759EB00D6C
:101AC0001124A20FB31FA655BD4F8C932F5F3F4F1C
:101AD0003093330420933204F3CD8091A602909189
:101AE000A702049774F481E894E00E943F23809356
:101AF000300420913204309133048A3009F0F0CD63
:101B0000FBCDDF91CF911F910F91FF90EF90DF9070
:101B1000CF90BF90AF909F908F907F905F904F90AD
:101B200008958F929F92AF92BF92CF92DF92EF92E1
:101B3000FF920F931F93CF93DF9378E1A72E72E06C
:101B4000B72E0FE812E0C6E4D4E0E2EA8E2EE2E01F
:101B50009E2EF50181915F0130DD882311F119DDA1
:101B60006B017C01F4018081811103C060915604F6
:101B700001C061E070E080E090E00E94764CF801E6
:101B800020813181428153810E94A94E9B01AC0189
:101B9000C701B6010E94FB4A688379838A839B83CD
:101BA00009C0F80180819181A281B38188839983E2
:101BB000AA83BB830C5F1F4F2496FFEF8F1A9F0AE7
:101BC0008CE1A81682E0B80621F686E4F6DC8823CC
:101BD000D1F0DFDC6B017C016093680470936904D1
:101BE00080936A0490936B0420E030E0A9010E9486
:101BF000D74D181644F4C0921401D0921501E0920A
:101C00001601F0921701DF91CF911F910F91FF9074
:101C1000EF90DF90CF90BF90AF909F908F900895FE
:101C200080DF89E4CADC882351F0B3DC60936C0464
:101C300070936D0480936E0490936F0408C01092AB
:101C40006C0410926D0410926E0410926F048AE47A
:101C5000B4DC882351F09DDC6093700470937104B0
:101C600080937204909373040895109270041092FC
:101C7000710410927204109273040895CF92DF924F
:101C8000EF92FF920F931F9320E030E0A901609143
:101C900046047091470480914804909149040E9441
:101CA000D44B87FF08C0109246041092470410924C
:101CB00048041092490420E030E0A90160914A04F0
:101CC00070914B0480914C0490914D040E94D44B30
:101CD00087FF08C010924A0410924B0410924C04E3
:101CE00010924D0420E030E0A90160914E04709103
:101CF0004F0480915004909151040E94D44B87FF6F
:101D000008C010924E0410924F041092500410928A
:101D1000510420E030E04DE453E4609146047091BA
:101D2000470480914804909149040E94D74D1816A9
:101D300064F480E090E0ADE4B3E4809346049093D3
:101D40004704A0934804B093490420E030E04DE4F8
:101D500053E460914A0470914B0480914C0490913B
:101D60004D040E94D74D181664F480E090E0ADE475
:101D7000B3E480934A0490934B04A0934C04B09333
:101D80004D0420E030E040EF52E460914E04709149
:101D90004F0480915004909151040E94D74D181621
:101DA00064F480E090E0A0EFB2E480934E0490935E
:101DB0004F04A0935004B09351040E947821609383
:101DC0003E0470933F0480934004909341046091DB
:101DD000020170910301882777FD8095982F0E945A
:101DE000764C2091140130911501409116015091CB
:101DF00017010E94A94E20E030E040E752E40E9423
:101E0000DB4B20E030E048EC52E40E94DB4BF2E890
:101E1000CF2EF2E0DF2E7B018C0122E534E04EE490
:101E200054E06AE474E086E494E00E947C2D8091A2
:101E3000460490914704A0914804B09149048093CE
:101E40008F0290939002A0939102B093920280919E
:101E50004A0490914B04A0914C04B0914D0480939E
:101E6000930290939402A0939502B093960280916E
:101E70004E0490914F04A0915004B091510480936E
:101E8000970290939802A0939902B0939A0280913E
:101E9000520490915304A0915404B091550480933E
:101EA0009B0290939C02A0939D02B0939E021F916F
:101EB0000F91FF90EF90DF90CF900895AF92BF9277
:101EC000CF92DF92EF92FF920F931F93CF93DF9306
:101ED000182F209170043091710440917204509138
:101EE000730460916C0470916D0480916E04909104
:101EF0006F040E94E44DEB01082FF92E609102015E
:101F000070910301882777FD8095982F0E94764C69
:101F10002091140130911501409116015091170143
:101F20000E94A94E20E030E040E752E40E94DB4BE3
:101F300020E030E048EC52E40E94DB4B209182022A
:101F40002F931F93FF920F93DF93CF935B016C014D
:101F5000A2E0EA2E01E020E04CE654E066E474E002
:101F60008FE892E00E9400258091460490914704FA
:101F7000A0914804B091490480938F0290939002FD
:101F8000A0939102B093920280914A0490914B04E5
:101F9000A0914C04B0914D048093930290939402CD
:101FA000A0939502B093960280914E0490914F04B5
:101FB000A0915004B091510480939702909398029D
:101FC000A0939902B0939A02809152049091530485
:101FD000A0915404B091550480939B0290939C026D
:101FE000A0939D02B0939E020E94782160933E04CC
:101FF00070933F0480934004909341040F900F909E
:102000000F900F900F900F90DF91CF911F910F9134
:10201000FF90EF90DF90CF90BF90AF900895F8942D
:102020000E94BB445A985A985A985A98E5E7F1E0AA
:1020300007C09091C00095FFFCCF8093C6003196F9
:1020400084918111F6CFEEEAF3E007C09091C000D1
:1020500095FFFCCF8093C600319684918111F6CF15
:102060008091C00085FFFCCF8AE08093C600FFCF3F
:10207000CF92DF92EF92FF920F931F930E947821ED
:102080000091600410916104209162043091630416
:10209000C0903E04D0903F04E0904004F090410492
:1020A0006C197D098E099F0906171707280739073C
:1020B00028F4012B022B032B09F0B1DF80911901C9
:1020C00090911A01A0911B01B0911C01892B8A2BC0
:1020D0008B2B09F10E94782100913E0410913F045E
:1020E0002091400430914104601B710B820B930BD3
:1020F0000091190110911A0120911B0130911C01CE
:10210000061717072807390730F4909108058091C2
:102110000705981721F00E94312D1EBA05C05A9864
:102120005A985A985A98F7CF1F910F91FF90EF90B5
:10213000DF90CF9008952F923F924F925F926F92CF
:102140007F928F929F92AF92BF92CF92DF92EF9247
:10215000FF920F931F93CF93DF93CDB7DEB7A69770
:102160000FB6F894DEBF0FBECDBF87E426DA882312
:1021700009F489C20EDA0E94434C64307105B1F152
:1021800044F46230710511F144F577FF17C00C94E7
:10219000501D6A35710509F422C234F46C317105A1
:1021A00011F00C94501D60C06B35710509F41BC211
:1021B0006C35710511F00C94501D1AC2809180028B
:1021C000811104C0AEDC5ADD0C9495208091800210
:1021D000811103C025DD81E006C08091800281115C
:1021E00005C01EDD80E06ADE0C94952080E5E5D90F
:1021F000882331F0CED90E94484C6B017C0103C08A
:10220000C12CD12C760183E5D8D9882359F0C1D9C6
:1022100020E030E04AE754E40E94A94E0E94484C76
:102220006B017C010E94B63F0E9478214B015C014A
:102230008C0C9D1CAE1CBF1C0E94782160933E0438
:1022400070933F04809340049093410404C00E9423
:10225000E24181E00DDF0E947821681579058A0549
:102260009B05A8F30C94501D8091140190911501C9
:10227000A0911601B09117018093420490934304FA
:10228000A0934404B093450480910201909103010E
:102290009093A1028093A00284E690E090930301C2
:1022A000809302010E94782160933E0470933F0462
:1022B000809340049093410481E00E94763980919C
:1022C0008F0290919002A0919102B091920280931E
:1022D000460490934704A0934804B0934904809126
:1022E000930290919402A0919502B09196028093EE
:1022F0004A0490934B04A0934C04B0934D048091F6
:10230000970290919802A0919902B0919A028093BD
:102310004E0490934F04A0935004B09351048091C5
:102320009B0290919C02A0919D02B0919E0280938D
:10233000520490935304A0935404B0935504109204
:10234000140110921501109216011092170188E5E0
:1023500034D9882311F090E008C089E52ED9811185
:10236000FACF8AE52AD991E0982790931801911124
:102370000C94531D88E521D9882309F48EC089E582
:102380001CD981110C94531D88C0C0921401D092A5
:102390001501E0921601F092170120E030E040E7CD
:1023A00052E4609114017091150180911601909191
:1023B00017010E94DB4BE2E8CE2EE2E0DE2E7B012D
:1023C0008C0122E534E04EE454E06AE474E086E4F3
:1023D00094E00E947C2D0E94B63F10928F021092D2
:1023E0009002109291021092920210929302109217
:1023F000940210929502109296022BE932E047E97E
:1024000052E063E972E08FE892E00E94FC3780912D
:102410008F0290919002A0919102B09192028093CC
:10242000460490934704A0934804B09349048091D4
:10243000930290919402A0919502B091960280939C
:102440004A0490934B04A0934C04B0934D0420E0B5
:1024500030E040E752E460911401709115018091E1
:102460001601909117010E94DB4B7B018C0122E544
:1024700034E04EE454E06AE474E086E494E00E94C0
:102480007C2D1092140110921501109216011092D9
:1024900017010E94B63F0E946F3980911801811187
:1024A0000C94A31D88E589D881110C94A31D8091FB
:1024B000180181110C947B1E89E57FD881110C9441
:1024C0007B1E8091180181110C94531F8AE575D8E9
:1024D00081110C94531F88E570D88823C1F062D80D
:1024E000672B682B692B99F054D820918302309187
:1024F000840240918502509186020E94FB4A6093BB
:102500008F0270939002809391029093920289E5DA
:1025100054D88823C1F046D8672B682B692B99F0D3
:1025200038D82091870230918802409189025091D9
:102530008A020E94FB4A60939302709394028093F4
:102540009502909396028AE538D88823C1F02AD85C
:10255000672B682B692B99F01CD820918B02309146
:102560008C0240918D0250918E020E94FB4A609332
:102570009702709398028093990290939A022BE9A4
:1025800032E047E952E063E972E08FE892E00E94AE
:10259000FC378091420490914304A0914404B0918F
:1025A00045048093140190931501A0931601B093F4
:1025B00017018091A0029091A10290930301809352
:1025C00002010E94782160933E0470933F0480933F
:1025D0004004909341040E946F390C94501D109256
:1025E00056040C94501D81E0809356040C94501DA9
:1025F00085E40E94DD0A811102C00E94B63F48E1D5
:10260000C42E42E0D42E53E8E52E52E0F52E0FE81A
:1026100012E0B12CF60181916F010E94DD0A88233E
:1026200039F1F3E0BF120CC00E94C90AF8016083BF
:102630007183828393838BE992E00E94973818C05C
:102640000E94C90AF70120813181428153810E9491
:10265000FB4AF80160837183828393832BE932E024
:1026600047E952E063E972E08FE892E00E94FC37AC
:10267000B394F4E0EF0EF11C0C5F1F4F24E0B21294
:10268000C9CF0C94501D8DE40E94DD0A882311F4FB
:102690000C94A51C0E94C90A0E94434C683771051E
:1026A00009F4D1C60CF053C06C35710509F44FC55F
:1026B00044F56A32710509F406C174F4623171059A
:1026C00009F4F4C46F31710509F4A4C061317105D6
:1026D00011F00C94501D98C06335710509F4E2C4E3
:1026E00034F46235710511F00C94501DD8C4643572
:1026F000710509F4DBC46535710511F00C94501DAA
:1027000010C56B36710509F4C7C464F469367105E8
:1027100009F48FC10CF099C46836710511F00C945E
:10272000501D11C16237710509F4B1C534F46D361D
:10273000710511F00C94501D4DC26337710509F4F9
:1027400098C56737710511F00C94501D82C66C3D19
:10275000710509F4CDC744F5693C710509F4D8C683
:1027600074F46C38710509F450C16E3B710509F4BD
:10277000D0C36937710511F00C94501D66C66C3CCE
:10278000710509F41BC734F46B3C710511F00C940E
:10279000501DF8C66D3C710509F430C76E3C7105DB
:1027A00011F00C94501D88C76F3231E0730711F49B
:1027B0000C94781C74F46D3291E0790709F4B9C770
:1027C00014F00C94741C6D3D710511F00C94501DA7
:1027D000A1C7653FF1E07F0711F40C948A1C3CF41B
:1027E0006039714011F00C94501D0C94871C663FA9
:1027F00081E0780711F40C948C1C673E734011F053
:102800000C94501D0C94901C5A9A5A9A5A9A5A9A9F
:102810000C94501D0E9478216093570470935804C3
:102820008093590490935A0400915B0410915C04C6
:1028300020915D0430915E04601B710B820B930B41
:1028400028EE33E040E050E00E94A14FCA01B901F8
:102850002CE330E040E050E00E94A14F7F936F9363
:102860003F932F938AE891E09F938F93CE01019637
:102870009F938F930E94A152EBEBF0E084910FB6EF
:10288000F894DEBF0FBECDBFEBEBF0E008C0909137
:10289000C00095FFFCCF8093C600319684918111D2
:1028A000F6CFFE01319606C09091C00095FFFCCF97
:1028B0008093C60081918111F7CF8091C00085FF80
:1028C000FCCF0C944D1D83E50E94DD0A882311F492
:1028D0000C94501D0E94C90A6B017C0180E50E9486
:1028E000DD0A882311F40C94501DC701B6010E9423
:1028F000434C7B0177FF02C00C94501D6F3F710564
:1029000009F014F40C942B200C94501D819191919A
:102910008017910711F40C94501D22E0E039F20762
:10292000A9F717FF02C00C94501D61E0802F0E9490
:1029300092226E2D802F0E94AE22B701802F0E941E
:1029400009220C94501D8091820280935F0484E5DB
:102950000E94DD0A882379F10E94C90A0E94484C2E
:1029600060935F04662339F1EBEBF0E007C09091D0
:10297000C00095FFFCCF8093C600319684918111F1
:10298000F6CFE9E9F1E006C09091C00095FFFCCFD9
:102990008093C60081918111F7CF40E050E06091B3
:1029A0005F0481E894E00E9400248091C00085FFCC
:1029B000FCCF0C944D1D83E50E94DD0A882309F1AC
:1029C000B0905F040E94C90A6B017C010B2D10E0DE
:1029D0000E94434CDC01CB016B2D0E944640F80164
:1029E000EE0FFF1FE255F54F91838083F801EE0F44
:1029F000FF1FEE0FFF1FEC55F54FC082D182E28220
:102A0000F3820E94BA440C94501D83E50E94DD0AB3
:102A1000882311F40C94501D0E94C90A0E94434C53
:102A2000CB010E94CA409093AD0A8093AC0A0C94EB
:102A3000501D8091820280935F0484E50E94DD0A2C
:102A4000882371F10E94C90A0E94484C60935F0478
:102A5000662331F1EBEBF0E007C09091C00095FFE9
:102A6000FCCF8093C600319684918111F6CFE0EBC4
:102A7000F1E006C09091C00095FFFCCF8093C600A6
:102A800081918111F7CF40E050E060915F0481E8CF
:102A900094E00E9400248091C00085FFFCCFFDC718
:102AA000E9E9F2E007C09091C00095FFFCCF809368
:102AB000C600319684918111F6CF60915F04E62FB4
:102AC000F0E0EE0FFF1FE655F54F808191810E94E7
:102AD0001641AB01BC0121E030E081E894E00E94A6
:102AE000FF24EFE9F2E007C09091C00095FFFCCF12
:102AF0008093C600319684918111F6CF60915F0476
:102B0000E62FF0E0EE0FFF1FE255F54F8081918137
:102B10000E941641AB01BC0121E030E081E894E065
:102B20000E94FF24E2EAF2E007C09091C00095FF06
:102B3000FCCF8093C600319684918111F6CF8091AD
:102B4000A80A9091A90A0E94C943AB01BC0121E0E7
:102B500030E081E894E00E94FF24E6EAF2E007C05A
:102B60009091C00095FFFCCF8093C6003196849170
:102B70008111F6CF8091AC0A9091AD0A0E94C943B1
:102B8000AB01BC0121E030E081E894E00E94FF2429
:102B9000E9EAF2E007C09091C00095FFFCCF809376
:102BA000C600319684918111F6CF80915F0490E048
:102BB0000E9440404AE050E0BC0181E894E00E945D
:102BC0003C248091C00085FFFCCF8AE08093C60042
:102BD0000C9495208091820280935F0484E50E948A
:102BE000DD0A882371F10E94C90A0E94484C609353
:102BF0005F04662331F1EBEBF0E007C09091C00079
:102C000095FFFCCF8093C600319684918111F6CF59
:102C1000E7ECF1E006C09091C00095FFFCCF8093F7
:102C2000C60081918111F7CF40E050E060915F04D0
:102C300081E894E00E9400248091C00085FFFCCFD1
:102C40002CC783E50E94DD0A882309F1B0905F0458
:102C50000E94C90A6B017C010B2D10E00E94434CBD
:102C6000DC01CB016B2D0E944640F801EE0FFF1FE7
:102C7000E255F54F91838083F801EE0FFF1FEE0FB1
:102C8000FF1FEC55F54FC082D182E282F3820E9491
:102C9000BA440E9478214B015C0180915F0490E06E
:102CA000880F991FFC01E255F54F2081318138A32F
:102CB0002F8FFC01E655F54F808191819EA38DA356
:102CC000CC24CA94DC2C7601EDEAF2E02490E0EB0F
:102CD000F2E03490E4EBF2E0049178EE472E73E0FA
:102CE000572E612C712C1AE00C944C20822DEDEAA9
:102CF000F2E008C09091C00095FFFCCF8093C60021
:102D0000319684918111F6CF60915F04E62FF0E057
:102D1000EE0FFF1FE655F54F808191810E9416410D
:102D2000AB01BC0121E030E081E894E00E94FF2487
:102D3000832DE0EBF2E008C09091C00095FFFCCF3E
:102D40008093C600319684918111F6CF60915F0423
:102D50004AE050E070E081E894E00E943C24802F3B
:102D6000E4EBF2E008C09091C00095FFFCCF8093A7
:102D7000C600319684918111F6CFF7FE03C0EEEDC7
:102D8000F1E027C00E9478214B015C01C701B60128
:102D9000605F784D8F4F9F4F681979098A099B09A9
:102DA000A30192010E94A14F49015A012AE030E09B
:102DB000B501A40181E894E00E94F0238091C00055
:102DC00085FFFCCF0DC09091C00095FFFCCF809394
:102DD000C60081918111F7CF8091C00085FFFCCFA3
:102DE0001093C6000E9478214B015C010E94E241D1
:102DF00081E03ED99FEFC916D906E906F906C1F56B
:102E000060915F04EF8DF8A12DA13EA12E173F0721
:102E100014F00C946820E62FF0E0EE0FFF1FE6554B
:102E2000F54F808191810E94164169A37AA38BA3FB
:102E30009CA360915F04E62FF0E0EE0FFF1FE255C8
:102E4000F54F808191810E94164120E030E040E8FA
:102E50005FE30E94FA4A9B01AC0169A17AA18BA1B0
:102E60009CA10E94D74D87FD02C00C9434203AC02B
:102E7000F7FC38C060915F04E62FF0E0EE0FFF1F13
:102E8000E655F54F808191810E94164169A37AA38E
:102E90008BA39CA360915F04E62FF0E0EE0FFF1F71
:102EA000E255F54F808191810E9416419B01AC0152
:102EB00069A17AA18BA19CA10E94FA4A0E94434C6D
:102EC000AB01BC0177FF07C07095609550954195A7
:102ED0005F4F6F4F7F4F443051056105710514F00E
:102EE0000C9434203FEFC316D306E306F30611F427
:102EF0000C944C20F7FE02C00C9439200E947821DB
:102F00006C197D096031774210F40C944C200C94BC
:102F1000392083E50E94DD0A882359F00E94C90AFE
:102F20000E94434CCB010E94CA409093AD0A80930B
:102F3000AC0A0E9478216B017C01E8EBF2E0A490DE
:102F4000EBEBF2E0B490EFEBF2E014910AE06FC02B
:102F50000E9478216C197D098E099F09693E734092
:102F60008105910508F45FC060918202A62FB0E050
:102F7000AA0FBB1FA655B54F8D919C910E9416417B
:102F8000AB01BC018A2DE8EBF2E008C09091C000D3
:102F900095FFFCCF8093C600319684918111F6CFC6
:102FA00022E030E081E894E00E94FF248B2DEBEBDF
:102FB000F2E008C09091C00095FFFCCF8093C6005E
:102FC000319684918111F6CF609182024AE050E0FF
:102FD00070E081E894E00E943C24812FEFEBF2E066
:102FE00008C09091C00095FFFCCF8093C600319639
:102FF00084918111F6CF8091A80A9091A90A0E942C
:10300000C943AB01BC0121E030E081E894E00E94BB
:10301000FF248091C00085FFFCCF0093C6000E9472
:1030200078216B017C010E94E24181E021D820914E
:10303000AC0A3091AD0A8091A80A9091A90A821732
:1030400093070CF485CF0C94422083E50E94DD0A9F
:103050008823F1F00E94C90A20E030E0A9010E9413
:10306000D44B87FD0FC00E94C90A20E030E04FE733
:1030700053E40E94D74D18163CF00E94C90A0E94E2
:10308000484C03C060E001C06FEF6093810208C547
:103090008FEF8093810204C51092810201C51092C6
:1030A000A502FEC481E08093A502FAC483E50E94D4
:1030B000DD0A882399F00E94C90A20E030E04AE73F
:1030C00054E40E94A94E0E94484C609319017093E9
:1030D0001A0180931B0190931C01E2C488E50E94B1
:1030E000DD0A8111EDC789E50E94DD0A8111E8C77B
:1030F0008AE50E94DD0A8111E3C785E40E94DD0AAA
:103100008111DEC7D7C75A9889E50E94DD0A81116F
:103110005A988AE50E94DD0A882309F4C1C45A98A6
:10312000BFC483E50E94DD0A0E94C90A20E030E0A6
:103130004AE754E40E94A94E0E94484C6093600400
:10314000709361048093620490936304A9C428E19E
:1031500032E03EA32DA3B5E22B2EBAE03B2E85E351
:103160009AE098A38F8F19EE812E19E0912E10E02E
:10317000EDA1FEA18191FEA3EDA30E94DD0A8823AB
:1031800009F466C0133009F05CC00E94C90A6B01E3
:103190007C0120E030E040EA51E40E94D44B87FFFC
:1031A0004AC0A7019601F1016081718182819381FA
:1031B0000E94DB4B762EA72EB82E092F762F272FB5
:1031C0003A2D4B2D502F6091FD097091FE09809191
:1031D000FF099091000A0E94A94E6093FD09709327
:1031E000FE098093FF099093000A272D3A2D4B2D5D
:1031F000502FEF8DF8A160817181828193810E94AF
:10320000A94EEF8DF8A16083718382839383F401CB
:1032100060817181828193810E94744C272D3A2DA7
:103220004B2D502F0E94A94E0E94484CF401608300
:10323000718382839383F101C082D182E282F3821F
:1032400007C00E94C90AF10160837183828393835E
:103250001F5FF4E02F0E311C2F8D38A12C5F3F4FE4
:1032600038A32F8F34E0830E911C143009F080CFE7
:1032700017C4E3ECF2E007C09091C00095FFFCCFCB
:103280008093C600319684918111F6CF09C4EEE592
:10329000F3E007C09091C00095FFFCCF8093C6007B
:1032A000319684918111F6CF40918F025091900216
:1032B000609191027091920222E030E081E894E006
:1032C0000E94FF24E1E6F3E007C09091C00095FF63
:1032D000FCCF8093C600319684918111F6CF409146
:1032E000930250919402609195027091960222E0AF
:1032F00030E081E894E00E94FF24E4E6F3E007C0B8
:103300009091C00095FFFCCF8093C60031968491C8
:103310008111F6CF409197025091980260919902E5
:1033200070919A0222E030E081E894E00E94FF244C
:10333000E7E6F3E007C09091C00095FFFCCF8093D3
:10334000C600319684918111F6CF40919B02509135
:103350009C0260919D0270919E0222E030E081E823
:1033600094E00E94FF24EAE6F3E007C09091C000D9
:1033700095FFFCCF8093C600319684918111F6CFE2
:103380000E940F400E94764C2091250A3091260A17
:103390004091270A5091280A0E94DB4BAB01BC01E7
:1033A00022E030E081E894E00E94FF24E4E7F3E0CB
:1033B00007C09091C00095FFFCCF8093C600319666
:1033C00084918111F6CF81E00E940F400E94764CDB
:1033D0002091290A30912A0A40912B0A50912C0AF7
:1033E0000E94DB4BAB01BC0122E030E081E894E0BD
:1033F0000E94FF24E7E7F3E007C09091C00095FF2B
:10340000FCCF8093C600319684918111F6CF82E083
:103410000E940F400E94764C20912D0A30912E0A76
:1034200040912F0A5091300A0E94DB4BAB01BC0146
:1034300022E030E081E894E00E94FF248091C00007
:1034400085FFFCCF2AC380E001C081E00E9476396D
:1034500027C3EAE7F3E007C09091C00095FFFCCFD7
:103460008093C600319684918111F6CF189903C0DC
:10347000E4E8F1E009C0E7E8F1E006C09091C0009F
:1034800095FFFCCF8093C60081918111F7CFE1E8D1
:10349000F3E007C09091C00095FFFCCF8093C60079
:1034A000319684918111F6CF199903C0E4E8F1E0D7
:1034B00009C0E7E8F1E006C09091C00095FFFCCF9D
:1034C0008093C60081918111F7CFE8E8F3E007C04F
:1034D0009091C00095FFFCCF8093C60031968491F7
:1034E0008111F6CF1A9903C0E4E8F1E009C0E7E8DA
:1034F000F1E006C09091C00095FFFCCF8093C6001C
:1035000081918111F7CF8091C00085FFFCCFC5C2AA
:10351000A8E1EA2EA2E0FA2E00E010E0F701819186
:103520007F010E94DD0A882339F10E94C90AE5E182
:10353000CE2EEAE0DE2EC00ED11E0E94484CF601CF
:1035400060837183828393830E94C90AF9EECF2E30
:10355000F9E0DF2EC00ED11EF801EB5DF54F2081A2
:103560003181428153810E94A94E0E94484CF6014C
:1035700060837183828393830C5F1F4F0031110539
:1035800069F68EC208E112E065E3E62E6AE0F62EE7
:10359000F80181918F010E94DD0A882339F00E9491
:1035A000C90AF7016083718382839383F4E0EF0E8D
:1035B000F11C22E00C31120759F772C283E50E9418
:1035C000DD0A882351F00E94C90A60930D0A7093A6
:1035D0000E0A80930F0A9093100A84E50E94DD0A78
:1035E000882309F45DC20E94C90A6093090A709396
:1035F0000A0A80930B0A90930C0A52C283E50E9438
:10360000DD0A882351F00E94C90A6093110A709361
:10361000120A8093130A9093140A84E50E94DD0A2B
:10362000882351F00E94C90A6093F9097093FA093E
:103630008093FB099093FC0982E40E94DD0A8823B1
:1036400061F00E94C90A0E94484C6093450A709339
:10365000460A8093470A9093480A88E50E94DD0A4B
:10366000882351F00E94C90A6093050A7093060AE4
:103670008093070A9093080A8AE50E94DD0A88234E
:1036800051F00E94C90A6093010A7093020A809364
:10369000030A9093040A85E40E94DD0A882309F452
:1036A000FFC10E94C90A6093FD097093FE098093CF
:1036B000FF099093000AF4C108E112E053E8E52EF7
:1036C00052E0F52EF80181918F010E94DD0A8823D6
:1036D00039F00E94C90AF701608371838283938362
:1036E000F4E0EF0EF11C22E00B31120759F7D8C1BC
:1036F00083E50E94DD0A882309F4D2C10E94C90A29
:103700000E94434C709303016093020181E0809317
:103710009F02C6C183E50E94DD0A882309F4C0C167
:103720000E94C90A0E94434C7093010160930001FA
:10373000B7C180E50E94DD0A882351F00E94C90AC2
:1037400060932E0170932F0180933001909331018B
:1037500089E40E94DD0A882381F00E94C90A25E9D4
:103760003FEB46ED5DE30E94A94E60932A01709302
:103770002B0180932C0190932D0184E40E94DD0A9B
:10378000882381F00E94C90A25E93FEB46ED5DE3FD
:103790000E94DB4B609326017093270180932801E0
:1037A0009093290183E40E94DD0A882351F00E944E
:1037B000C90A60932201709323018093240190939E
:1037C00025010E942940E0EEF1E006C09091C00082
:1037D00095FFFCCF8093C60081918111F7CFE3EE76
:1037E000F1E006C09091C00095FFFCCF8093C60029
:1037F00081918111F7CF40912E0150912F0160915D
:1038000030017091310122E030E081E894E00E94C3
:10381000FF24E7EEF1E006C09091C00095FFFCCFD9
:103820008093C60081918111F7CF25E93FEB46EDEA
:103830005DE360912A0170912B0180912C019091A0
:103840002D010E94DB4BAB01BC0122E030E081E89E
:1038500094E00E94FF24EBEEF1E006C09091C000DE
:1038600095FFFCCF8093C60081918111F7CF25E9A8
:103870003FEB46ED5DE36091260170912701809159
:103880002801909129010E94A94EAB01BC0122E0C0
:1038900030E081E894E00E94FF24EFEEF1E006C002
:1038A0009091C00095FFFCCF8093C600819181115B
:1038B000F7CF25E93FEB46ED5DE360912201709182
:1038C000230180912401909125010E94A94EAB0112
:1038D000BC0122E030E081E894E00E94FF24809166
:1038E000C00085FFFCCFD9C081E00E94B038D8C0AD
:1038F00083E50E94DD0A882319F00E94C90A04C0EA
:1039000060E070E086E193E40E94E744C9C00E9451
:10391000B63FC6C080E001C081E00E941C08C0C064
:10392000109280028091640490916504A0916604D5
:10393000B091670480933A0490933B04A0933C04B5
:10394000B0933D040E94170BABC084E50E94DD0AD2
:10395000882309F461C00E94C90A0E94484C609300
:103960005F04662389F1EBEBF0E007C09091C000A3
:1039700095FFFCCF8093C600319684918111F6CFDC
:10398000E3EFF1E006C09091C00095FFFCCF80937B
:10399000C60081918111F7CF40E050E060915F0453
:1039A00081E894E02DD7E5EFF1E006C09091C000EA
:1039B00095FFFCCF8093C60081918111F7CF809154
:1039C000C00085FFFCCF69C010928202EBEBF0E0F3
:1039D00007C09091C00095FFFCCF8093C600319640
:1039E00084918111F6CFE6E0F2E006C09091C0002C
:1039F00095FFFCCF8093C60081918111F7CF609134
:103A000082024AE050E070E081E894E035D780918E
:103A1000C00085FFFCCF41C0EBEBF0E007C0909108
:103A2000C00095FFFCCF8093C60031968491811130
:103A3000F6CFEFE8F3E007C09091C00095FFFCCF10
:103A40008093C600319684918111F6CF80912E0427
:103A500090912F0420E6289FF001299FF00D11245A
:103A6000E655FD4F06C09091C00095FFFCCF8093B6
:103A7000C60081918111F7CFE1EAF3E007C0909190
:103A8000C00095FFFCCF8093C600319684918111D0
:103A9000F6CF8091C00085FFFCCF8AE08093C600FE
:103AA0000E94F80A42C310928F0210929002109264
:103AB000910210929202109293021092940210922C
:103AC0009502109296022BE932E047E952E063E951
:103AD00072E08FE892E00E94FC3780E090ECA9E968
:103AE000B3EC8093460490934704A0934804B093AA
:103AF000490480934A0490934B04A0934C04B093E0
:103B00004D0420910401309105014091060150912E
:103B1000070120931401309315014093160150932F
:103B20001701C0900801D0900901E0900A01F090BF
:103B30000B01C701B6010E94D44B87FF02C00C9451
:103B4000C5110C94CD1110928F0210929002109218
:103B50009102109292022BE932E047E952E063E9C8
:103B600072E08FE892E00E94FC3780E090ECA9E9D7
:103B7000B3EC8093460490934704A0934804B09319
:103B800049046091040170910501809106019091B2
:103B900007016093140170931501809316019093AF
:103BA000170120E030E040E752E40E94DB4B42E89E
:103BB000C42E42E0D42E7B018C0122E534E04EE499
:103BC00054E06AE474E086E494E00E947C2D0E9454
:103BD000B63F10928F0210929002109291021092B2
:103BE00092022BE932E047E952E063E972E08FE8A4
:103BF00092E00E94FC3780E090E0A0EAB0E480937D
:103C0000460490934704A0934804B093490420E0ED
:103C100030E040E752E46091140170911501809109
:103C20001601909117010E94DB4B7B018C0122E56C
:103C300034E04EE454E06AE474E086E494E00E94E8
:103C40007C2D0E94B63F80E090E0A0E2B1EC809332
:103C5000460490934704A0934804B093490420E09D
:103C600030E040E05FE360910401709105018091D4
:103C70000601909107010E94A94EFB01462F5F2F7C
:103C8000682F792F4093140150931501609316010A
:103C90007093170120E030E040E752E4BF010E943A
:103CA000DB4B7B018C0122E534E04EE454E06AE416
:103CB00074E086E494E00E947C2D0E94B63F10924E
:103CC0008F02109290021092910210929202109222
:103CD000460410924704109248041092490410922E
:103CE00014011092150110921601109217010E94F2
:103CF0006F390C9457121092930210929402109202
:103D00009502109296022BE932E047E952E063E90E
:103D100072E08FE892E00E94FC3780E090ECA9E925
:103D2000B3EC80934A0490934B04A0934C04B0935B
:103D30004D04609108017091090180910A019091F0
:103D40000B016093140170931501809316019093F9
:103D5000170120E030E040E752E40E94DB4B32E8FC
:103D6000C32E32E0D32E7B018C0122E534E04EE4F9
:103D700054E06AE474E086E494E00E947C2D0E94A2
:103D8000B63F1092930210929402109295021092F4
:103D900096022BE932E047E952E063E972E08FE8EE
:103DA00092E00E94FC3780E090E0A0EAB0E48093CB
:103DB0004A0490934B04A0934C04B0934D0420E02C
:103DC00030E040E752E46091140170911501809158
:103DD0001601909117010E94DB4B7B018C0122E5BB
:103DE00034E04EE454E06AE474E086E494E00E9437
:103DF0007C2D0E94B63F80E090E0A0E2B1EC809381
:103E00004A0490934B04A0934C04B0934D0420E0DB
:103E100030E040E05FE3609108017091090180911A
:103E20000A0190910B010E94A94EFB01462F5F2FC2
:103E3000682F792F40931401509315016093160158
:103E40007093170120E030E040E752E4BF010E9488
:103E5000DB4B7B018C0122E534E04EE454E06AE464
:103E600074E086E494E00E947C2D0E94B63F10929C
:103E70009302109294021092950210929602109260
:103E80004A0410924B0410924C0410924D0410926C
:103E900014011092150110921601109217010E9440
:103EA0006F390C946112109297021092980210923E
:103EB000990210929A022BE932E047E952E063E955
:103EC00072E08FE892E00E94FC3780E090E0A4E38B
:103ED000B3EC80934E0490934F04A0935004B0939E
:103EE000510460910C0170910D0180910E0190912F
:103EF0000F01609314017093150180931601909344
:103F0000170120E030E040E752E40E94DB4B22E85A
:103F1000C22E22E0D22E7B018C0122E534E04EE459
:103F200054E06AE474E086E494E00E947C2D0E94F0
:103F3000B63F109297021092980210929902109236
:103F40009A022BE932E047E952E063E972E08FE838
:103F500092E00E94FC3780E090E0A0E8BFE380930D
:103F60004E0490934F04A0935004B093510420E06A
:103F700030E040E752E460911401709115018091A6
:103F80001601909117010E94DB4B7B018C0122E509
:103F900034E04EE454E06AE474E086E494E00E9485
:103FA0007C2D0E94B63F80E090E0A0E0B0EC8093D2
:103FB0004E0490934F04A0935004B093510420E01A
:103FC00030E040E05FE360910C0170910D01809161
:103FD0000E0190910F010E94A94EFB01462F5F2F09
:103FE000682F792F409314015093150160931601A7
:103FF0007093170120E030E040E752E4BF010E94D7
:10400000DB4B7B018C0122E534E04EE454E06AE4B2
:1040100074E086E494E00E947C2D0E94B63F1092EA
:104020009702109298021092990210929A0210929E
:104030004E0410924F0410925004109251041092AA
:1040400014011092150110921601109217010E948E
:104050006F390C946B120E94C90A0E94434C8B0169
:10406000ECE1F2E00C94861443D16B017C010C94DA
:1040700072173ED160935B0470935C0480935D047F
:1040800090935E0435D160933E0470933F04809317
:1040900040049093410404CD2BD1681979098A0911
:1040A0009B09693E73408105910510F00C947616CA
:1040B0000C94F6160E94B63F5A980E942340F0CC0A
:1040C0000E94B63F88E50E94DD0A81111CC81CC809
:1040D000E62FF0E0EE0FFF1FE655F54F808191814E
:1040E0000E94164169A37AA38BA39CA360915F04ED
:1040F000E62FF0E0EE0FFF1FE255F54F8081918132
:104100000E94164120E030E040E85FE30E94FB4A55
:104110009B01AC0169A17AA18BA19CA10E94D44B07
:1041200018160CF0A1CF0C947217A6960FB6F8943F
:10413000DEBF0FBECDBFDF91CF911F910F91FF90DA
:10414000EF90DF90CF90BF90AF909F908F907F9037
:104150006F905F904F903F902F9008958091A602AE
:104160009091A702039714F40E94420B8091A6023B
:104170009091A702892BC1F00E949B108091A6020A
:104180009091A70201979093A7028093A602809135
:104190002E0490912F04019664E070E00E948E4FEF
:1041A00090932F0480932E040E94E24181E00E94AC
:1041B00038100C94B3380E94BB4480918002811166
:1041C00034C081E08093800280913A0490913B0456
:1041D000A0913C04B0913D048093640490936504E5
:1041E000A0936604B0936704E5E7F1E007C09091FF
:1041F000C00095FFFCCF8093C60031968491811159
:10420000F6CFEFECF3E007C09091C00095FFFCCF34
:104210008093C600319684918111F6CF8091C000C1
:1042200085FFFCCF8AE08093C600089580918002CC
:104230000895E82FF0E0E95BFB4FE491E650E230AF
:1042400060F48091B1008C7F8093B1008091B100C7
:1042500067707727862B8093B10008959FD00E94C6
:104260002D097CDFFECF1F920F920FB60F92112403
:104270002F933F938F939F93AF93BF938091780435
:1042800090917904A0917A04B0917B0430918004DC
:10429000232F2A592D3720F02D570196A11DB11D2E
:1042A000209380048093780490937904A0937A04F7
:1042B000B0937B0480917C0490917D04A0917E0456
:1042C000B0917F040196A11DB11D80937C04909351
:1042D0007D04A0937E04B0937F04BF91AF919F9122
:1042E0008F913F912F910F900FBE0F901F901895B7
:1042F0000F931F938FB7F89400917804109179046D
:1043000020917A0430917B048FBFB801C9011F91BD
:104310000F9108959FB7F89440917C0450917D04CB
:1043200060917E0470917F0486B5A89B06C08F3F84
:1043300021F04F5F5F4F6F4F7F4F9FBF2227342F7A
:10434000452F562F280F311D411D511DA3E0B0E010
:104350000C946F4FCF92DF92EF92FF92CF93DF9347
:104360006B017C01D7DFEB010DC0D4DF6C1B7D0B33
:10437000683E734038F081E0C81AD108E108F108BE
:10438000C851DC4FC114D104E104F10471F7DF918D
:10439000CF91FF90EF90DF90CF900895789484B5FF
:1043A000826084BD84B5816084BD85B5826085BD31
:1043B00085B5816085BDEEE6F0E080818160808317
:1043C000E1E8F0E0108280818260808380818160FA
:1043D0008083E0E8F0E0808181608083E1EBF0E0C1
:1043E000808184608083E0EBF0E080818160808365
:1043F000EAE7F0E08081846080838081826080834E
:104400008081816080838081806880831092C10078
:1044100008951F93CF93DF93182FEB0161E082D0B3
:10442000209711F460E004C0CF3FD10531F461E082
:10443000812FDF91CF911F9191C0E12FF0E0E95BD7
:10444000FB4FE491E330B9F028F4E13051F0E23071
:10445000B1F50CC0E63019F1E73049F1E43079F5F7
:1044600014C084B5806884BDC7BD2EC084B5806289
:1044700084BDC8BD29C08091800080688093800081
:10448000D0938900C09388001FC080918000806213
:1044900080938000D0938B00C0938A0015C08091D8
:1044A000B00080688093B000C093B3000DC08091CD
:1044B000B00080628093B000C093B40005C0C038E3
:1044C000D1050CF0B4CFAECFDF91CF911F910895FD
:1044D000833069F028F48130A1F0823011F514C0E6
:1044E0008630B1F08730C1F08430D9F404C08091B7
:1044F00080008F7703C0809180008F7D8093800043
:10450000089584B58F7702C084B58F7D84BD0895EA
:104510008091B0008F7703C08091B0008F7D809331
:10452000B000089590E0FC01E959FB4F2491FC0193
:10453000E957FB4FE491EE2381F0F0E0E455FB4FA7
:10454000A491B0E09FB7F8948C91611103C02095BD
:10455000822301C0822B8C939FBF08950F931F93DA
:10456000CF93DF931F92CDB7DEB7A82FB0E0FD0148
:10457000E95BFB4F8491FD01E959FB4F1491FD016B
:10458000E957FB4F04910023B1F0882319F06983A8
:104590009FDF6981E02FF0E0E955FB4FA491B0E087
:1045A0009FB7F8948C91611103C01095812301C0CD
:1045B000812B8C939FBF0F90DF91CF911F910F9113
:1045C00008951F920F920FB60F9211242F933F93CD
:1045D0004F935F936F938F939F93EF93FF936091AC
:1045E000C6002091020530910305C90101968F771D
:1045F000992740910405509105058417950741F0CE
:10460000F901EE57FB4F60839093030580930205F9
:10461000FF91EF919F918F916F915F914F913F919A
:104620002F910F900FBE0F901F9018959A01AB011C
:1046300082E08093C00060E47BE48CE490E00E9420
:10464000C34F2150310941095109CA01B90122E082
:1046500030E040E050E00E94C34F832F99278093C1
:10466000C5002093C400E1ECF0E08081806180838C
:1046700080818860808380818068808308958091B4
:104680000405909105052091020530910305281736
:10469000390769F0FC01EE57FB4F208101968F77B7
:1046A0009927909305058093040530E002C02FEF11
:1046B0003FEFC901089580910405909105059093FD
:1046C00003058093020508956F927F928F929F92C7
:1046D000AF92BF92CF92DF92EF92FF920F931F9310
:1046E000CF93DF93CDB7DEB7A0970FB6F894DEBFB8
:1046F0000FBECDBF8C014115510561057105C1F497
:1047000040E050E060E3A0960FB6F894DEBF0FBE25
:10471000CDBFDF91CF911F910F91FF90EF90DF9070
:10472000CF90BF90AF909F908F907F906F90ABC0D5
:1047300066246394712C6C0E7D1EC12CD12C7601E5
:10474000822E912CA12CB12CCB01BA01A501940190
:104750000E94A14FFA01D3016D933D01BFEFCB1A27
:10476000DB0AEB0AFB0AA901BF01411551056105EE
:10477000710551F781E0C81AD108E108F10815C0A8
:10478000E1E0F0E0EC0FFD1FEC0DFD1D60816A30F3
:1047900010F4605D01C0695C40E050E0C80173D076
:1047A000A1E0CA1AD108E108F108BFEFCB16DB0679
:1047B000EB06FB0629F7A0960FB6F894DEBF0FBEF6
:1047C000CDBFDF91CF911F910F91FF90EF90DF90C0
:1047D000CF90BF90AF909F908F907F906F900895F3
:1047E0002115310539F48091C00085FFFCCF40933D
:1047F000C600089569CF9A01AB0160E070E0F0CF88
:104800009A01462F50E060E070E0EACFCF92DF924D
:10481000EF92FF92CF93DF93EC016A017B012115A8
:10482000310539F48091C00085FFFCCFC092C600ED
:104830001CC02A30310579F477FF0CC040E050E00D
:104840006DE221D0F094E094D094C094C11CD11CAE
:10485000E11CF11C2AE0B701A601CE01DF91CF9146
:10486000FF90EF90DF90CF902FCFDF91CF91FF900F
:10487000EF90DF90CF9008959A01AB01662757FD26
:104880006095762FC3CF9A01462F50E060E070E02C
:10489000BDCFCF93DF93EC0140E050E06DE0F3DF5C
:1048A00040E050E06AE0CE01DF91CF91ECCFCF93B2
:1048B000DF93EC01A0DFCE01DF91CF91EACF8F92A1
:1048C0009F92AF92BF92CF92DF92EF92FF920F939F
:1048D0001F93CF93DF938C014A015B01C22F20E02D
:1048E00030E0A901C501B4010E94D44B87FF09C083
:1048F00040E050E06DE2C801C6DFB7FAB094B7F807
:10490000B094D0E060E070E080E09FE307C020E07A
:1049100030E040E251E40E94DB4BDF5FDC13F7CF75
:10492000262F372F482F592FC501B4010E94FB4A6B
:10493000D62EE72EF82ED92F0E94484C962EA72E61
:10494000B82EC92E0E94744C9B01AC016D2D7E2D9A
:104950008F2D9D2F0E94FA4AD62FF72EE82ED92EA2
:104960002AE030E0492D5A2D6B2D7C2DC80138DF0F
:10497000CC23B1F1E6E5F2E006C09091C00095FFCE
:10498000FCCF8093C60081918111F7CF29C020E030
:1049900030E040E251E46D2F7F2D8E2D9D2D0E9441
:1049A000A94E6B017C017D2D9F2D0E94434C5B0124
:1049B0004AE050E0C80160DFB501882777FD8095A7
:1049C000982F0E94764C9B01AC016C2D7D2D8E2D75
:1049D0009F2D0E94FA4AD62FF72EE82ED92EC150CD
:1049E000C111D5CFDF91CF911F910F91FF90EF9023
:1049F000DF90CF90BF90AF909F908F9008955FCF42
:104A00002F923F924F925F926F927F928F929F92DE
:104A1000AF92BF92CF92DF92EF92FF920F931F93CC
:104A2000CF93DF93CDB7DEB7CA54D1090FB6F89450
:104A3000DEBF0FBECDBF1C017E8B6D8B3A012BA359
:104A40000EA3E8A6AEAABFAAC8AED9AE34E0239F93
:104A500080011124400F511F5BAB4AABDA018D90EE
:104A60009D90AD90BC90FC01E00FF11F2081318141
:104A700042815381C501B4010E94FB4A6AAF7BAFFA
:104A80008CAF9DAFEEA1B4E0EB9F700111249301B8
:104A90002E0D3F1D3DAB2CABD9014D905D906D901F
:104AA0007C90F101EE0DFF1D208131814281538107
:104AB000C301B2010E94FB4A6EAF7FAF21968FAF58
:104AC000219722969FAF2297E8A5B4E0EB9FC00103
:104AD0001124F101E80FF91F2081318142815381B6
:104AE0002B8F3C8F4D8F5E8FED89FE89E80FF91F6C
:104AF00060817181828193810E94FA4A462F572FEB
:104B0000682F792F498B5A8B6B8B7C8BAD89BE8933
:104B10001C968D919D910D90BC91A02D8AA79BA76D
:104B2000ACA7BDA7D1011C962D913D914D915C91F3
:104B30001F972F8F38A349A35AA3B7FAB094B7F899
:104B4000B09477FA709477F87094ED89FE89E00F4D
:104B5000F11F7AAD6BAD9CAD8DAD272F362F492F50
:104B6000582F60817181828193810E94FA4A6F8BF4
:104B7000788F898F9DA3ED89FE89EE0DFF1D7EAD97
:104B80006FAD21969FAD219722968FAD2297272F4B
:104B9000362F492F582F60817181828193810E9425
:104BA000FA4A162F072F382E292E7F89688D998D66
:104BB0008DA1272F362F492F582FC501B4010E94F0
:104BC000A94E6B017C01B801C101272F362F492F57
:104BD000582FC301B2010E94A94E9B01AC01C7012D
:104BE000B6010E94FB4A6B017C01B801C101272F6D
:104BF000362F492F582FC501B4010E94A94E6EA728
:104C00007FA788AB99AB7F89688D998D8DA1272F60
:104C1000362F492F582FC301B2010E94A94E9B0184
:104C2000AC016EA57FA588A999A90E94FA4AA7019F
:104C300096010E946E4B362E272E182F092F20E04A
:104C400030E0A901D101F8016B2F7A2F8F2F9E2F11
:104C50000E94D44B87FF10C02BED3FE049EC50E49D
:104C6000D101F8016B2F7A2F8F2F9E2F0E94FB4AC4
:104C7000362E272E182F092FA4968FADA4978823A0
:104C800081F02BED3FE049EC50E4D101F8016B2FAE
:104C9000722D8F2F902F0E94FA4A362E272E182F12
:104CA000092FC988DA88EB88FC88E894F7F8A3967E
:104CB0002CAD3DAD4EAD5FADA397D101F8016B2F8B
:104CC000722D8F2F902F0E94A94EA70196010E944E
:104CD000E44D6B017C012FE632E143E85AE30E9488
:104CE000D44B87FD79C2C701B6010E94B14C0E9426
:104CF000484C7A8F698FFB01EF2B21F421E030E0E3
:104D00003A8F298F498D5A8DBA0180E090E00E9438
:104D1000744C6B017C019B01AC01D101F8016B2F3C
:104D2000722D8F2F902F0E94DB4B6F8B788F1C0181
:104D3000A701960169897A898B899C890E94DB4B3E
:104D400024966FAF249725967FAF259726968FAF31
:104D5000269727969FAF27972F8D38A149A15AA153
:104D60006AA57BA58CA59DA50E94FA4AA70196017C
:104D70000E94DB4B28966FAF289729967FAF299723
:104D80002A968FAF2A972B969FAF2B9720E030E083
:104D900040E05FE3BF89A88D6B2F7A2F822D932D82
:104DA0000E94A94EBF89A88D2B2F3A2F422D532D3B
:104DB0000E94A94E9B01AC0160E070E080E89FE397
:104DC0000E94FA4A6DA37AA78EA723969FAF2397D6
:104DD000CE010196FC01A8A554E0A59FE00DF11DB0
:104DE00011242B8D3C8D4D8D5E8D2083318342832C
:104DF00053832F8D38A149A15AA12D873E874F8714
:104E0000588B198A41E050E05C8F4B8F81E090E035
:104E10008C0F9D1FBBA1A4E0BA9F800D911D112492
:104E200099A788A721E030E02C0F3D1F5EA144E048
:104E3000549F200D311D11243FA32EA3FCA3EBA3EF
:104E4000ABC1898989310CF050C07F89688D272FCB
:104E5000362F422D532DC501B4010E94A94E6B017E
:104E60007C017DA16AA59EA523968FAD2397272F50
:104E7000362F492F582FC301B2010E94A94E9B0122
:104E8000AC01C701B6010E94FB4A7B018C017DA1E8
:104E90006AA59EA523968FAD2397272F362F492FDE
:104EA000582FC501B4010E94A94E5B016C017F8996
:104EB000688D272F362F422D532DC301B2010E943A
:104EC000A94E9B01AC016A2D7B2D8C2D9D2D0E943E
:104ED000FA4A862E972EA82EB92E99899F5F998B14
:104EE0004E2C5F2C602E712E72C0AB8DBC8DBD011F
:104EF00080E090E00E94744CBF89A88D2B2F3A2F40
:104F0000422D532D0E94A94E7B018C017F2D802FB5
:104F1000912F0E94D84B2B013C016E2D7F2D802FAD
:104F2000912F0E940C4F698B7A8B8B8B9C8BEAA9FB
:104F3000FBA980819181A281B3819C01AD01505870
:104F40002F8F38A349A35AA3ACA9BDA9CD90DD905A
:104F5000ED90FC90A30192016F8D78A189A19AA197
:104F60000E94A94E4B015C0129893A894B895C89D1
:104F7000C701B6010E94A94E9B01AC01C501B40155
:104F80000E94FB4A862E972EA82EB92E29893A898F
:104F90004B895C896F8D78A189A19AA10E94A94E45
:104FA000698B7A8B8B8B9C8BA3019201C701B60115
:104FB0000E94A94E9B01AC0169897A898B899C89E1
:104FC0000E94FA4A462E572E682E792E198AA5017C
:104FD0009401BAADABADFCADEDAD6B2F7A2F8F2F39
:104FE0009E2F0E94FB4AE8A5F9A560837183828306
:104FF0009383A3019201BEADAFAD2196FFAD219782
:105000002296EFAD22976B2F7A2F8F2F9E2F0E9423
:10501000FB4AAEA1BFA16D937D938D939C93139793
:1050200024967FAD249725966FAD259726969FAD44
:10503000269727968FAD2797272F362F492F582F42
:10504000EBA1FCA160817181828193810E94FB4A66
:10505000ABA1BCA16D937D938D939C9313972896E0
:105060007FAD289729966FAD29972A969FAD2A97ED
:105070002B968FAD2B97272F362F492F582F6D85C5
:105080007E858F8598890E94FB4A6D877E878F87F2
:10509000988B20E030E0A90169817A818B819C8125
:1050A0000E94D44B87FF04C019821A821B821C8283
:1050B00020E030E0A9016D817E818F8198850E947A
:1050C000D44B87FF04C01D821E821F82188620E0F9
:1050D00030E0A90169857A858B859C850E94D44B37
:1050E00087FF04C019861A861B861C8620E030E0E4
:1050F0004DE453E469817A818B819C810E94D74D74
:10510000181644F480E090E0ADE4B3E489839A8318
:10511000AB83BC8320E030E04DE453E46D817E81BD
:105120008F8198850E94D74D181644F480E090E056
:10513000ADE4B3E48D839E83AF83B88720E030E095
:1051400040EF52E469857A858B859C850E94D74D16
:10515000181644F480E090E0A0EFB2E489879A87C3
:10516000AB87BC8794E6C92ED12CCC0EDD1EEEA8F1
:10517000FFA808AD19AD9E01235F3F4FAE01475F09
:105180005F4FBE016B5F7F4FCE010196B5D4EB8DB3
:10519000FC8D3196FC8FEB8F2B8D3C8D498D5A8D7C
:1051A0002417350708F44DCE2D893E89245F3F4FE3
:1051B0004D895E89485F5F4F6D897E896C5F7F4F47
:1051C00084E6C82ED12CCC0EDD1EEEA8FFA808ADBB
:1051D00019AD8D899E8990D4C65BDF4F0FB6F894C8
:1051E000DEBF0FBECDBFDF91CF911F910F91FF901A
:1051F000EF90DF90CF90BF90AF909F908F907F9077
:105200006F905F904F903F902F9008958F5F803107
:1052100009F480E008952F923F924F925F926F922F
:105220007F928F929F92AF92BF92CF92DF92EF9236
:10523000FF920F931F93CF93DF93CDB7DEB768979D
:105240000FB6F894DEBF0FBECDBF1C014A015B0153
:1052500068017901DC01D8966D917D918D919C91C9
:10526000DB970E94744C69837A838B839C83A501AE
:1052700094010E94A94E0E94C14B0E94484C6D832C
:105280007E838F839887A701960169817A818B81BC
:105290009C810E94A94E0E94C14B0E94484C698784
:1052A0007A878B879C872D813E814F81588528374F
:1052B00031054105510540F488E790E0A0E0B0E0F9
:1052C0008D839E83AF83B88729853A854B855C851E
:1052D000283731054105510540F488E790E0A0E00A
:1052E000B0E089879A87AB87BC87F101EC5BFF4F01
:1052F0004080518062807380C301B2010E94764C6D
:105300006B017C01D101DC966D917D918D919C9119
:10531000DF970E94744C6D877E878F87988B20E083
:1053200030E0A901C701B6010E94D44B882339F1AE
:1053300029813A814B815C81CA01B9010E94A94E41
:105340004B015C012D853E854F855889CA01B90105
:105350000E94A94E9B01AC01C501B4010E94FA4A0A
:105360004B015C01A7019601C701B6010E94FB4AEF
:105370009B01AC01C501B4010E94DB4B04C060E09D
:1053800070E080E090E00E94C14B0E94434C4B01D2
:105390005C0166277727CB0164197509860997098F
:1053A0000E94764C2B013C01F101E05CFF4F6081D3
:1053B0007181828193810E94744C698B7A8B8B8B73
:1053C0009C8B20E030E0A901C301B2010E94D44BC4
:1053D000882379F129893A894B895C89CA01B90105
:1053E0000E94A94E6D8B7E8B8F8B988F29813A817D
:1053F0004B815C81CA01B9010E94A94E9B01AC019D
:105400006D897E898F89988D0E94FA4A69837A8393
:105410008B839C83A3019201C301B2010E94FB4ACA
:105420009B01AC0169817A818B819C810E94DB4B5D
:1054300004C060E070E080E090E00E94B14CD101D7
:1054400050962D913D914D915C91539729833A83CC
:105450004B835C8329013A01481859086A087B0884
:105460000E94434C461A570A680A790A77FE6CC0B4
:1054700020E030E0A901C701B6010E94D44B882387
:1054800009F445C0A7019601C701B6010E94FB4A75
:105490002B013C0169817A818B819C810E94744C33
:1054A0009B01AC01C301B2010E94A94E2B013C013A
:1054B0002D853E854F855889CA01B9010E94A94EA4
:1054C0009B01AC01C301B2010E94FA4A2B013C01CD
:1054D00029893A894B895C89CA01B9010E94A94E80
:1054E0009B01AC01C301B2010E94FB4A4B015C016C
:1054F00020E030E040E850E4C701B6010E94A94E28
:105500009B01AC01C501B4010E94DB4B04C060E00B
:1055100070E080E090E00E94C14B0E94434C4B0140
:105520005C01B7FE03C0812C912C540129813A8182
:105530004B815C8182169306A406B50610F04901E2
:105540005A01412C512C32018FB7F894F101E45BE0
:10555000FF4F9081911125C0D10154968D929D925B
:10556000AD92BC925797480C591C6A1C7B1CF101E8
:10557000408E518E628E738E2D813E814F81588573
:10558000DC962D933D934D935C93DF97A05CBF4FCA
:1055900029853A854B855C852D933D934D935C938E
:1055A00013978FBF68960FB6F894DEBF0FBECDBFBE
:1055B000DF91CF911F910F91FF90EF90DF90CF90EF
:1055C000BF90AF909F908F907F906F905F904F9023
:1055D0003F902F900895AF92BF92CF92DF92EF92BB
:1055E000FF920F931F93CF93DF935B017A016115B5
:1055F000710509F475C04115510509F471C0FB012D
:1056000002A513A5D4A5C5A5CE01202F312F492F62
:10561000582F66A177A180A591A50E94D44B88231D
:1056200009F45EC0F50187A981114BC0F701C6A03E
:10563000D7A0E0A4F1A4A7019601DE01602F712F8D
:105640008B2F9A2F0E94D74D1816DCF5A7019601D3
:10565000C701B6010E94A94E6B017C01F50182A928
:1056600093A9A4A9B5A9BC01CD0190589B01AC0197
:105670000E94FB4AF50126A537A540A951A90E9421
:10568000A94E9B01AC01C701B6010E94FA4A0E94D3
:10569000164F6B017C01762F272F3D2D4E2D5F2D50
:1056A000FE01602F712F8F2F9E2F0E94D44B87FFFA
:1056B00003C06801ED2EFC2E5C2D4D2D3E2D2F2DAF
:1056C00003C0502F412F9E01852F942FA32FB22F5F
:1056D000F50186A397A3A0A7B1A781E0F50186AB4A
:1056E000DF91CF911F910F91FF90EF90DF90CF90BE
:1056F000BF90AF900895CF92DF92FF920F931F93C8
:10570000CF93DF931F92CDB7DEB7809108058091CC
:1057100008052091070590E0821B91098F70992759
:1057200004970CF12091080523502F7040E050E0C1
:1057300000E010E08DE4F82E12C0211101C020E13C
:105740002150F29E6001112489E095E0C80ED91E17
:10575000B801C60129833FDFA80186012981809114
:1057600007052813EACF0F90DF91CF911F910F917A
:10577000FF90DF90CF9008952F923F924F925F92CB
:105780006F927F928F929F92AF92BF92CF92DF9251
:10579000EF92FF920F931F93CF93DF93EC011B01C6
:1057A000009709F464C08FA9811161C08EA09FA0E9
:1057B000A8A4B9A4FB01C6A0D7A0E0A4F1A42C2DF5
:1057C0003D2D4E2D5F2DC501B4010E94D44B87FFA6
:1057D0004EC0A5019401C501B4010E94A94E2B0140
:1057E0003C018AA89BA8ACA8BDA8C501B4019058EB
:1057F0009B01AC010E94FB4A2EA53FA548A959A9CF
:105800000E94A94E9B01AC01C301B2010E94FA4A59
:105810000E94164F8B01D82FC92F762FCE01272F2C
:10582000312F492F582F6C2D7D2D8E2D9F2D0E94AD
:10583000D44B87FF03C08601DE2DCF2DCE01202F54
:10584000312F492F5C2F6C2D7D2D8E2D9F2D0E9489
:10585000D44B882361F09E01802F912FA32FBC2F62
:10586000F10186A397A3A0A7B1A781E086ABDF9142
:10587000CF911F910F91FF90EF90DF90CF90BF904D
:10588000AF909F908F907F906F905F904F903F90E0
:105890002F900895EF92FF920F931F93CF93DF9372
:1058A000F0900705C0E0D0E080E090E02DE4E22E2B
:1058B0000DC0EF9C80011124075F1A4FA801BE01A3
:1058C0005BDF8F2DA3DCF82ECE01E80120910805C7
:1058D000F212EFCF40E050E0BE01DF91CF911F9177
:1058E0000F91FF90EF9048CF4F925F926F927F920F
:1058F0008F929F92AF92BF92CF92DF92EF92FF92E0
:105900000F931F93CF93DF9350900705C0E0D0E033
:105910003DE4432E34C0429E3001439E700C11245E
:1059200089E095E0680E791E209729F18EA98111F2
:1059300004C0F30186A98823F1F0CAA0DBA0ECA083
:10594000FDA0A7019601F30166A177A180A591A50D
:105950000E94DB4B4B015C01A70196016EA17FA168
:1059600088A599A50E94DB4BAB01BC019501840180
:10597000CE0151DC1EAA852D49DC582EE301252DD0
:10598000332727FD30958091080590E028173907C7
:1059900009F0C1CF2097E9F0CAA0DBA0ECA0FDA0E0
:1059A000A70196016DEC7CEC8CE49DE30E94DB4B3F
:1059B0004B015C01A70196016EA17FA188A599A565
:1059C0000E94DB4BAB01BC0195018401CE0123DCBD
:1059D0001EAADF91CF911F910F91FF90EF90DF9062
:1059E000CF90BF90AF909F908F907F906F905F907F
:1059F0004F90089580DE4EDF77CF10920805109209
:105A0000070580E1E9EDF9E0DF011D928A95E9F7EC
:105A10001092490A10924A0A10924B0A10924C0AAC
:105A200010924D0A10924E0A10924F0A1092500A8C
:105A30001092510A1092520A1092530A1092540A6C
:105A40001092550A1092560A1092570A1092580A4C
:105A50001092590A10925A0A10925B0A10925C0A2C
:105A60000895CF939091070580910805981709F143
:105A7000209107058DE4289FF0011124EF5AFA4F79
:105A8000C08130E04DE410C0429FF0011124EF5A74
:105A9000FA4F80819181A281B381892B8A2B8B2B34
:105AA00009F03F5F2F5F2F70809108052813ECCF1E
:105AB0000AC060918102662321F070E08EE00E94AE
:105AC0000922C0E030E080918102811107C03111CC
:105AD00005C060E070E08EE00E94092280918102A2
